:100000000C9469040C94712C0C94462C0C941B2CAD
:100010000C94F02B0C94C52B0C949A2B0C946F2BF6
:100020000C94442B0C94542D0C94542D0C94542D5E
:100030000C949A040C949A040C949A040C949A04C8
:100040000C949A040C94262D0C949A040C949A0403
:100050000C949A040C949A040C949A040C94FA2A22
:100060000C949A040C94D02A0C94A62A0C949A040A
:100070000C949A040C949A040C949A040C949A0488
:100080000C94F82C0C949A040C949A040C949A04F2
:100090000C947C2A0C94522A0C949A040C94D02D23
:1000A0000C949A040C949A040C94CA2C0C949A0400
:1000B0000C949A040C949A040C949A040C949C2C1E
:1000C0000C949A040C949A040C949A040C94282A84
:1000D0000C94FE290C949A040C94D4290C94AA290B
:1000E0000C949A040C9460060C94D8240C940E176B
:1000F0000C9429110C94DC090C94D7060C94250A55
:100100000C94C8120C94450F0C94E6160C94720FC4
:100110000C946D120C9424170C9455170C94FE0734
:100120000C949F160C94310A0C9445120C94F91CF3
:100130000C946F1E0C94AF1E0C940F180C94A40F0B
:100140000C9402080C9462220C9439080C940C183C
:100150000C94AB1E0C94F21E0C94AE090C94FA167F
:100160000C94CE180C9428110C9404170C94031FB3
:100170000C9437230C94B71E0C94731E0C94F61237
:100180000C940D080C9480160C943A130C94B11234
:100190000C94620D0C94F5090C942B0A0C94141613
:1001A0000C9405120C94CB0F0C94270A0C94592F25
:1001B0000C940C1B0C9432140C94D5240C94BF0F8B
:1001C0000C941A250C948F220C94DE1E0C94072399
:1001D0000C9486160C942B080C94EE0C0C94D10FF6
:1001E0000C94EA130C9445150C94EA270C943218DD
:1001F0000C940E180C94D40F0C9419120C94180A29
:100200000C94D2170C9492190C940D180C944A0D5E
:100210000C945F110C94C9240C9441150C94111882
:100220000C94B51E0C942B0F0C94711E0C94C014DE
:100230000C94A9160C941A0F0C94B1230C942F084B
:100240000C9422160C94B9160C94F5120C943611D9
:100250000C9447120C94B91E0C94DB240C94EB17ED
:100260000C9421080C94CD160C943D080C94A6090E
:100270000C94D50C0C9436180C94A71E0C941D13DA
:100280000C941B180C9410180C94BC0F0C94B81CF4
:100290000C948B160C941D080C9492170C942F0A36
:1002A0000C94BA090C942B280C94A6060C94C20F3B
:1002B0000C94F8070C94B1160C9413080C94AD1E12
:1002C0000C9460110C94C9060C94DF130C941F134A
:1002D0000C94C5240C94B5060C9418170C94A10F1B
:1002E0000C94B11E0C9438080C942D0A0C94F01642
:1002F0000C949F110C941C0F0C941B0F0C9408165B
:100300000C94D70F0C94D4090C9425080C94C709AD
:100310000C940A080C94E8090C9495070C94291283
:100320000C942F180C94A51E0C9480110C94ED0CB9
:100330000C9425180C94E0130C94B31E0C94D7164F
:100340000C9425170C9434180C9406080C94230A6A
:100350000C94D2110C94A91E0C943E0F0C94911283
:100360000C94C50F0C94C3160C944A1B0C943308C0
:100370000C943E280C9449120C94441B0C9459176D
:100380000C942D070C9431180C9495160C941708A6
:100390000C9440110C9422110C94D1240C94511EF5
:1003A0000C9404110C94CE0F0C9448120C9400136E
:1003B0000C94FA134572726F7220696E2053504983
:1003C0005F4441544120636F6D6D616E643A2065F6
:1003D0006D707479206D6573736167650045727225
:1003E0006F7220656E61626C696E672053504920A0
:1003F0006D6F6465005350492E626567696E2829E8
:10040000005350495F424547494E3A204F6E6C7940
:10041000206368616E6E656C203020737570706F3C
:1004200072746564004E6577205350492064657688
:1004300069636520256420616C6C6F636174656419
:10044000207769746820696E64657820256420616E
:100450006E642043532025642C20636C6F636B20F3
:10046000737065656420256420487A005350495FA5
:100470004445564943455F434F4E4649473A204F0E
:100480006E6C79206368616E6E656C2030207375C8
:1004900070706F727465643A20005350495F444530
:1004A000564943455F434F4E4649473A204F6E6C8D
:1004B0007920382062697420776F726473207375B5
:1004C00070706F72746564005350495F44455649BB
:1004D00043455F434F4E4649473A204D6178206E71
:1004E000756D626572206F662064657669636573F9
:1004F000206578636565646564004E6F7420656E81
:100500006F756768206461746120696E205350497B
:100510005F4445564943455F434F4E464947206D2A
:1005200065737361676500556E6B6E6F776E2053F0
:10053000504920636F6D6D616E643A2000535049DD
:100540005F5452414E534645523A2053656E6420E3
:10055000627566666572206E6F74206C6172676585
:1005600020656E6F756768005350495F5452414E65
:10057000534645523A20556E6B6E6F776E20646518
:10058000766963654964207370656369666965644B
:100590003A20004E6F7420656E6F75676820646145
:1005A000746120696E20535049206D6573736167D3
:1005B0006500535049206E6F7420656E61626C65F2
:1005C000642E005350492E656E64282900457272CE
:1005D0006F7220696E2044485420636F6D6D616EA8
:1005E000643A204E6F7420656E6F75676820706185
:1005F00072616D6574657273004E6565642061207B
:1006000076616C696420696E7465727275707420AD
:1006100070696E2061732077616B657570207069F9
:100620006E00536C656570206D6F64652077696C32
:100630006C20626520616374697661746564206111
:1006400066746572202564206D7300556E6B6E6F45
:10065000776E2070696E206D6F646500556E6861FD
:100660006E646C656420737973657820636F6D6D5B
:10067000616E643A203078257820286C656E3A20C7
:10068000256429004E6F7420656E6F75676820625F
:100690007974657320696E2053595354454D5F56E4
:1006A00041524941424C45206D6573736167650055
:1006B00043616E6E6F74206368616E676520706958
:1006C0006E206E756D626572207768696C65206159
:1006D000637469766500496E76616C69642070693F
:1006E0006E206E756D62657220666F72206672652F
:1006F0007175656E637920636F6D6D616E6400491D
:1007000032433A20546F6F206D616E7920627974A4
:10071000657320726563656976656400746F6F2028
:100720006D616E7920717565726965730031302D68
:100730006269742061646472657373696E67206EA8
:100740006F7420737570706F727465640053706598
:10075000636966792073657269616C205258206103
:100760006E642054582070696E73000000210024CC
:100770000027002A002D0030003300010100000492
:100780000107010A0100000A0B02090C0D0E0807FF
:100790000304010000000000000000000000000051
:1007A0000000000000000000000000000000000049
:1007B0000012111000000000000000000000000006
:1007C0000000000000000000000000426F6F74692C
:1007D0006E67206465766963652E205374616E646C
:1007E0002062792E2E2E0044697363617264696EF3
:1007F0006720696E707574206D6573736167652C11
:10080000206F7574206F66206275666665720000E1
:100810000020002300260029002C002F00320000B9
:100820000100000301060109010000220025002843
:10083000002B002E003100340002010000050108E9
:10084000010B010505050507050808080802020255
:10085000020A0A080804040404010101010101015B
:10086000010303030303030303040707070C0C0C32
:100870000C0C0C0C0C02020202060606060606060A
:10088000060B0B0B0B0B0B0B0B01021020200808A7
:1008900010204010204080020102010804020101E2
:1008A00002040810204080804020100804020180CB
:1008B0000402018040201008040201080402010122
:1008C000020408102040800102040810204080002B
:1008D000592F11241FBECFEFD1E2DEBFCDBF00E004
:1008E0000CBF13E0A0E0B2E0E2E2F8E700E00BBFEB
:1008F00002C007900D92A237B107D9F72AE0A2E70C
:10090000B3E001C01D92A637B207E1F714E0C9E6D3
:10091000D4E000E006C021970109802FFE010E946B
:10092000E536C836D10780E00807A9F70E94B33141
:100930000C940F3C0C940000A0919B07B0919C0775
:10094000ED91FC9111970190F081E02D682FCD0180
:100950001994282F30E02556384FF901E45BFF4FFA
:1009600090819F3769F02E563F4FD9011C926083CA
:10097000E0917B08F0917C08309711F070E01994B9
:100980000895CF93DF93CBE9D7E088819981DC018B
:10099000ED91FC910190F081E02D67EF1995888130
:1009A0009981DC01ED91FC910680F781E02DDF91CA
:1009B000CF9119940F931F93CF93DF93EC010BE921
:1009C00017E0D8018D919C916C2F6F77DC01ED9130
:1009D000FC910190F081E02D1995F80180819181C1
:1009E000CC0FCD2FCC1FDD0B6C2F6F77DC01ED9181
:1009F000FC910190F081E02DDF91CF911F910F913B
:100A0000199480919B0790919C07DC01ED91FC91DA
:100A10000190F081E02D60EF1994CF93DF93CBE943
:100A2000D7E088819981DC01ED91FC910190F08102
:100A3000E02D69EF199588819981DC01ED91FC9198
:100A40000190F081E02D62E0199588819981DC01A7
:100A5000ED91FC910190F081E02D67E0DF91CF9165
:100A60001994CF92DF92EF92FF92CF93DF93EC0134
:100A70006A017B01E889F98982E08083C11481EEF3
:100A8000D806E104F104A1F060E079E08DE390E0A4
:100A9000A70196010E9400362150310941095109F0
:100AA0005695479537952795211580E1380798F099
:100AB000E889F989108260E874E88EE190E0A70186
:100AC00096010E940036215031094109510956957D
:100AD000479537952795EC85FD853083EE85FF8515
:100AE0002083188EEC89FD8986E08083EA89FB8962
:100AF000808180618083EA89FB898081886080832E
:100B0000EA89FB89808180688083EA89FB8980810A
:100B10008F7D8083DF91CF91FF90EF90DF90CF901A
:100B20000895E0913009E53158F421E02E0F20932B
:100B30003009F0E0EE0FFF1FEA5FF64F91838083EC
:100B4000089581E0809373081092A1071092A20784
:100B50001092A307E4EAF7E0119287E0E43EF80779
:100B6000D9F71092E4071092E6071092E507E0919A
:100B70007F08F0918008309709F01995109273085A
:100B800008950F931F93CF93C82F8B01803198F452
:100B900080919B0790919C076C2F606EDC01ED911A
:100BA000FC910190F081E02D1995C801CF911F9122
:100BB0000F910C94DA040E94010580919B0790919B
:100BC0009C07DC01ED91FC910190F081E02D6FE636
:100BD000199580919B0790919C07DC01ED91FC9108
:100BE0000190F081E02D6C2F1995C8010E94DA0464
:100BF000CF911F910F910C94C104CF93DF9300D03C
:100C0000CDB7DEB78F7080698983862F8F778A830F
:100C1000660F672F661F770B6B8380919B07909100
:100C20009C07DC01ED91FC910280F381E02D43E013
:100C300050E0BE016F5F7F4F19950F900F900F909E
:100C4000DF91CF910895CF92DF92EF92FF926B01E7
:100C50007C01862F8F770E949C04D701C60127E074
:100C6000B695A795979587952A95D1F78F770E9486
:100C70009C04D701C6013EE0B695A7959795879548
:100C80003A95D1F78F770E949C04D701C60145E1C0
:100C9000B695A795979587954A95D1F78F770E9436
:100CA0009C04D701C6015CE1B695A79597958795F9
:100CB0005A95D1F7FF90EF90DF90CF900C949C0461
:100CC000AF92BF92CF92DF92EF92FF920F931F935A
:100CD000CF93DF936C017B018B01040F151FEB0198
:100CE0005E01AE18BF08C017D10759F06991D6014F
:100CF000ED91FC910190F081E02DC6011995892BB1
:100D000079F7C501DF91CF911F910F91FF90EF907F
:100D1000DF90CF90BF90AF900895FC01A089B1897A
:100D20008C91A689B78982FD0FC09C91818D8F5FC0
:100D30008F73228D821749F0A18DAE0FBF2FB11D89
:100D40005D969C93818F08958C910895FC01538D3D
:100D5000448D252F30E0842F90E0821B930B541795
:100D600010F0CF96089501970895FC01918D828D22
:100D7000981761F0A28DAE0FBF2FB11D5D968C91BB
:100D8000928D9F5F9F73928F90E008958FEF9FEFFA
:100D90000895FC01918D828D981731F0828DE80FB6
:100DA000F11D858D90E008958FEF9FEF0895FC0170
:100DB000918D228D892F90E0805C9F4F821B91093D
:100DC0008F739927089581E195E00E94D70621E06D
:100DD000892B09F420E0822F08958EEA95E00E9485
:100DE000D70621E0892B09F420E0822F08958BE4B7
:100DF00096E00E94D70621E0892B09F420E0822F9B
:100E0000089588EE96E00E94D70621E0892B09F428
:100E100020E0822F0895FC01A48DA80FB92FB11DE9
:100E2000A35ABF4F2C91848D90E001968F73992720
:100E3000848FA689B7892C93A089B1898C918370FE
:100E400080648C93938D848D981306C00288F389F7
:100E5000E02D80818F7D80830895EF92FF920F9324
:100E60001F93CF93DF93EC0181E0888F9B8D8C8D56
:100E700098131AC0E889F989808185FF15C09FB74A
:100E8000F894EE89FF896083E889F989808183700D
:100E9000806480839FBF81E090E0DF91CF911F91BC
:100EA0000F91FF90EF900895F62E0B8D10E00F5FDD
:100EB0001F4F0F731127E02E8C8D8E110CC00FB6B3
:100EC00007FCFACFE889F989808185FFF5CFCE014B
:100ED0000E940B07F1CFEB8DEC0FFD2FF11DE35AB4
:100EE000FF4FF0829FB7F8940B8FEA89FB898081CE
:100EF0008062CFCF0F931F93CF93DF938C01D0E00D
:100F0000C0E0F801EC0FFD1F6491662341F088EE0C
:100F100096E00E942D07892B11F02196F2CFCE0189
:100F2000DF91CF911F910F910895CF93DF93EC0143
:100F3000888D8823B9F0AA89BB89E889F9898C91C1
:100F400085FD03C0808186FD0DC00FB607FCF7CF7D
:100F50008C9185FFF2CF808185FFEDCFCE010E947D
:100F60000B07E9CFDF91CF91089580E090E0892BC6
:100F700029F00E94010781110E94000080E090E0AA
:100F8000892B29F00E94F70681110E94000080E061
:100F900090E0892B29F00E94ED0681110E9400004B
:100FA00080E090E0892B29F00E94E30681110C94E7
:100FB000000008958150823108F05AC0E82FF0E017
:100FC0008827EA51F84F8F4F0C94E53606080A0837
:100FD000F807FE07020838080D08130817081D084F
:100FE000210825082B082F083808330839083D0840
:100FF000809180008F778093800008958091800099
:101000008F7DF9CF80918000877FF5CF84B58F7772
:1010100084BD089584B58F7DFBCF8091B0008F771C
:101020008093B00008958091B0008F7DF9CF8091BA
:1010300090008F77809390000895809190008F7D2D
:10104000F9CF80919000877FF5CF8091A0008F77B6
:101050008093A00008958091A0008F7DF9CF8091AA
:10106000A000877FF5CF809120018F7780932001AA
:101070000895809120018F7DF9CF80912001877F95
:10108000F5CFCF93DF93282F30E0F901EB57F84FDE
:101090008491F901E757F74FD491F901ED5BF74FD0
:1010A000C491CC23A1F081110E94DA07EC2FF0E06B
:1010B000EE0FFF1FE15FF74FA591B491EC91ED2387
:1010C00081E090E009F480E0DF91CF91089580E025
:1010D00090E0FACF1F93CF93DF93282F30E0F901F0
:1010E000EB57F84F8491F901E757F74FD491F90185
:1010F000ED5BF74FC491CC23A9F0162F81110E940C
:10110000DA07EC2FF0E0EE0FFF1FE75DF74FA59138
:10111000B4918FB7F894EC91111108C0D095DE23EB
:10112000DC938FBFDF91CF911F910895DE2BF8CF15
:10113000CF93DF9390E0FC01E757F74F24918D5B4D
:10114000974FFC0184918823C9F090E0880F991F84
:10115000FC01E559F84FA591B491FC01E75DF74F0B
:10116000C591D49161110DC09FB7F8948C912095D1
:1011700082238C938881282328839FBFDF91CF917E
:101180000895623051F49FB7F8943C91822F809576
:1011900083238C93E8812E2BEFCF8FB7F894EC91BB
:1011A0002E2B2C938FBFEACF863308F086532091E5
:1011B0007B00982F9870277F922B90937B008770ED
:1011C000806480937C0080917A00806480937A00B0
:1011D00080917A0086FDFCCF809178009091790013
:1011E00008953FB7F8948091BD049091BE04A091FA
:1011F000BF04B091C00426B5A89B05C02F3F19F0CD
:101200000196A11DB11D3FBFBA2FA92F982F882786
:10121000BC01CD01620F711D811D911D42E0660F61
:10122000771F881F991F4A95D1F708958F929F9233
:10123000AF92BF92CF92DF92EF92FF926B017C014F
:101240000E94F1084B015C01C114D104E104F104D6
:10125000B9F00E94F108681979098A099B09683E6A
:1012600073408105910580F321E0C21AD108E1089D
:10127000F10888EE880E83E0981EA11CB11CE4CF13
:10128000FF90EF90DF90CF90BF90AF909F908F90A6
:1012900008952FB7F8946091B9047091BA048091C1
:1012A000BB049091BC042FBF08958F929F92AF9280
:1012B000BF92CF92DF92EF92FF92CF93C82F0E94FE
:1012C00049094B015C01F894C0909107D0909207B6
:1012D000E0909307F090940778940E9401058DE7C1
:1012E0000E949C0482E00E949C048C2F0E949C041B
:1012F000C501B4010E942306C701B6010E9423065E
:10130000CF91FF90EF90DF90CF90BF90AF909F90E4
:101310008F900C94C104E82FF0E0DF01AA0FBB1FEF
:10132000A050BE4F11967C936E93883008F069C030
:101330008827E256F64F8F4F0C94E536D409DC0926
:10134000A609AE09BA09C709E809F509809169003B
:101350008C7F482B40936900E89A0895809169003A
:10136000837F440F551F440F551F482B409369003E
:10137000E99A0895809169008F7C74E0440F551FAD
:101380007A95E1F7482B40936900EA9A0895809195
:1013900069008F7366E0440F551F6A95E1F7482B8B
:1013A00040936900EB9A089580916A008C7F482BE6
:1013B00040936A00EC9A089580916A00837F440FFD
:1013C000551F440F551F482B40936A00ED9A08950E
:1013D00080916A008F7C24E0440F551F2A95E1F725
:1013E000482B40936A00EE9A089580916A008F73AB
:1013F00096E0440F551F9A95E1F7482B40936A00F9
:10140000EF9A08958830F0F4282F30E0815087302B
:1014100000F5E82FF0E08827EF5EF54F8F4F0C9432
:10142000E5362B0A180A230A250A270A2D0A2F0A4D
:10143000E898220F331FF901E050FE4F81E39AE054
:10144000918380830895E998F4CFEA98F2CFEB98DE
:10145000F0CFEC98EECFED98ECCFEE98EACFEF9886
:10146000E8CF0895DF92EF92FF920F931F93CF93EF
:10147000DF93EC01D62E7A0189018881803308F050
:1014800067C061E08D2D0E9498088881282F30E088
:10149000F901EE0FFF1FE20FF31FE85DFB4F9D2DDB
:1014A0009F736081607C692B608320E232E02E199B
:1014B0003F0937FF02C02D5F3F4F35952795359582
:1014C0002795298320E639E0201B310B37FF02C026
:1014D0002D5F3F4F35952795359527952A832CE02D
:1014E000622F0E94C536829FB001112430E020E0B7
:1014F000AB01420F531FFA01EE0FFF1FE40FF51F60
:10150000E85DFB4F908196FD16C02F5F3F4F2C305A
:10151000310571F7813029F51092800082E08093C7
:1015200081001092850010928400B19A80916F0022
:10153000826080936F00E8818E2F90E0FC01EE0FB7
:10154000FF1FE80FF91FE85DFB4F808180648083F7
:101550008881DF91CF911F910F91FF90EF90DF90E5
:101560000895823061F4109290008093910010925F
:1015700095001092940088BB80937100DCCF83307B
:1015800069F41092A00082E08093A1001092A5005F
:101590001092A40089BB80937200CDCF8111CBCF74
:1015A0001092200182E08093210110922501109277
:1015B00024018ABB80937300BECFAF92BF92CF92BB
:1015C000DF92EF92FF920F931F93CF93DF936B0104
:1015D0007A01EC01CC5DDB4F28813CE0389F800133
:1015E000399F100D1124A0902304B12C27FF1FC098
:1015F000FB011182108288818F5F88838881980126
:10160000280F311D87FD3A95F6012A153B051CF47C
:1016100088818C30C4F180819181049680349C490A
:1016200008F473C0F60180819181049670C08881AE
:101630009801280F311D87FD3A952A153B05DCF6E8
:101640008881A801480F511D87FD5A95FA01EE0FB8
:10165000FF1FE40FF51FE85DFB4F808186FFCBCFB6
:101660008881F801E80FF11D87FDFA95CF01EE0F93
:10167000FF1FE80FF91FE85DFB4F808160E08F736B
:101680000E946A08B8CF808191812881A801420F09
:10169000511D27FD5A959A01FA01EE0FFF1FE20F27
:1016A000F31FE85DFB4F21813281820F931FF70109
:1016B0009183808388819801280F311D87FD3A9599
:1016C000F901EE0FFF1FE20FF31FE85DFB4F808172
:1016D00086FF22C08881080F111D87FD1A95F80129
:1016E000EE0FFF1FE00FF11FE85DFB4F808161E00F
:1016F0008F73DF91CF911F910F91FF90EF90DF904B
:10170000CF90BF90AF900C946A0880E49CE9F701F9
:10171000918380838FEF8883DF91CF911F910F9109
:10172000FF90EF90DF90CF90BF90AF900895CF9251
:10173000DF92EF92FF92CF93DF93DC011796CC916B
:101740001797D0E06111DC2F18962C91189730E094
:10175000220F331F215F374F50E040E0F9018591A0
:101760009491FC01F080BA0190E080E0EF2DEC2331
:10177000ED1310C04F5F5F4F1D96CD90DD90ED9043
:10178000FC9050976C157D058E059F0538F36FEF23
:101790007FEFCB01DF91CF91FF90EF90DF90CF9063
:1017A00008958F929F92AF92BF92CF92DF92EF9265
:1017B000FF920F931F93CF93DF93CDB7DEB7C05443
:1017C000D1400FB6F894DEBF0FBECDBF8C010E9492
:1017D0004909F801C184D284E384F4849B01AC01FB
:1017E0002C193D094E095F0969017A0130EDC316D4
:1017F00037E0D306E104F104A8F48189C05CDE4F30
:101800000FB6F894DEBF0FBECDBFDF91CF911F9111
:101810000F91FF90EF90DF90CF90BF90AF909F908F
:101820008F900895618772878387948714821382CB
:1018300012821182108262E085810E94980861E024
:1018400070E080E090E00E94160961E0F801858177
:101850000E94980860E0F80185810E946A08F801FA
:1018600086818551823028F58BE291E10197F1F76D
:1018700062E0F80185810E949808F801828990E071
:101880008230910538F0880F991F880F991F0597AE
:101890000197F1F7F89460E0C8010E94970B6F3F41
:1018A0007F4F8F4F9F4F61F4F801118A789480E049
:1018B000A5CF64E170E080E090E00E941609D8CFE7
:1018C00061E0C8010E94970B6F3F7F4F8F4F9F4F82
:1018D00059F39E012F5F3F4F79015E013FEBA31A41
:1018E0003EEFB30A670160E0C8010E94970BF60162
:1018F000608371838283938361E0C8010E94970BA8
:10190000F6016483758386839783F8E0CF0ED11C3C
:10191000CA14DB0441F7789430E020E0F7018080BE
:101920009180A280B3804481558166817781FFEFE9
:101930008F169F06AF06BF0631F04F3F8FEF580757
:101940006807780719F4F801118AB1CFF90183E02B
:10195000F595E7958A95E1F7E00FF11F8081880FF3
:1019600084169506A606B706F0F080832F5F3F4FDA
:10197000F8E0EF0EF11C2832310581F6F8014481C0
:1019800020818181280F3327331F8281280F311D49
:101990008381820F932F911D99274817190699F675
:1019A00081E0818B2BCF8160E0CF209121043091A9
:1019B00022042817390771F49091200480911F04A4
:1019C000981741F0E0912004F0E0E152FC4F808153
:1019D00090E008958FEF9FEF08950895EF92FF92A2
:1019E0000F931F93CF93DF93DC015C96ED90FC90F7
:1019F0005D97E114F10479F481E090E013969C93F3
:101A00008E93129790E080E0DF91CF911F910F911C
:101A1000FF90EF9008955196ED91FC91529750965A
:101A20008C915097982F90950FB75E962C915E975A
:101A3000122F127021FD6095F8942081112319F165
:101A4000282B2083E7012197F1F728E0462F50E06B
:101A5000308160FF1AC0382B3083E7012197F1F7FE
:101A6000BA0175956795215089F7112381F080811E
:101A7000892380830FBF5C968D919C910197F1F72C
:101A800081E090E0C1CF2923DCCF3923E5CF9081DD
:101A9000892BEFCF20912104309122042817390798
:101AA00071F480911F042091200490E0805C9F4F8E
:101AB000821B910960E470E00E94D136089590E0A5
:101AC00080E00895209121043091220428173907DD
:101AD000B9F49091200480911F04981789F0E09147
:101AE0002004F0E0E152FC4F80812091200430E09E
:101AF0002F5F3F4F2F7333272093200490E00895EA
:101B00008FEF9FEF0895E0912104F0912204E817F0
:101B1000F90769F4A389B4899C9185898095892303
:101B20008C93109222041092210481E0089580E0A9
:101B30000895CF93DF93EC018A8D9B8D892B01F162
:101B400080912104909122048C179D07C9F0009781
:101B500011F00E94830D8E8D8E7F8E8F10921F0448
:101B600010922004D0932204C0932104EB89FC89B5
:101B700080819D89892B808381E0DF91CF910895B9
:101B800080E0FBCF2091BA03260F3327331F213289
:101B90003105ECF42091E704FC0190E080E0243072
:101BA00069F082E00895A091BA032191AC014856F2
:101BB0005C4FA40FB52FB11D2C930196861798F397
:101BC0008091BA03680F6093BA0380E0089581E0C2
:101BD0000895ECEBF0E080818A7B808360E084E113
:101BE0000E946A0860E085E10C946A081092E7049C
:101BF00081E08093E6041092C10461E084E10E94D8
:101C00006A0861E085E10E946A08E9EBF0E0808102
:101C10008E7F808380818D7F808388E48093B8006D
:101C200085E48093BC000895CF93DF9391E0909377
:101C30009703882361F0C091B800D091BA000E9448
:101C4000E90D0E94F60DD093BA00C093B800DF9161
:101C5000CF9108958F929F92AF92BF92CF92DF92D1
:101C6000EF92FF920F931F93CF93DF93D0911005C4
:101C7000D13208F0D7C0182FC0910F050E94F1088B
:101C80006B017C018091E70481116BC082E080933D
:101C9000E7041093E6048FEF8093E5041092E404C8
:101CA000D093E304AFEEB4E0E3ECF4E080E0D813CB
:101CB00091C01092C2048091C204CC0FC82BC09373
:101CC000C2048091C104813009F088C01092C1041F
:101CD0000E94F1086B017C018091C2048093BB00DB
:101CE0008091E9049091EA04A091EB04B091EC0496
:101CF000892B8A2B8B2BA1F00E94F1080091E9041B
:101D00001091EA042091EB043091EC046C197D09E8
:101D10008E099F09061717072807390708F442C0DC
:101D20008091BC0083FDD8CF85EC8093BC000E94DD
:101D3000F1086B017C018091E704823009F450C006
:101D40008091E5048F3F09F46FC08091E5048032F3
:101D500009F46CC08091E504803309F469C084E023
:101D600026C08091E9049091EA04A091EB04B0911F
:101D7000EC04892B8A2B8B2B09F484CF0E94F10869
:101D80008090E9049090EA04A090EB04B090EC04F9
:101D90006C197D098E099F0986169706A806B90653
:101DA00008F070CF8091E8040E94140E85E0109234
:101DB000EE04109210051092ED04DF91CF911F9167
:101DC0000F91FF90EF90DF90CF90BF90AF909F90DA
:101DD0008F9008959D9191938F5F69CF85EEA5CFE8
:101DE0008091E9049091EA04A091EB04B091EC0495
:101DF000892B8A2B8B2B09F49ECF0E94F10800912E
:101E0000E9041091EA042091EB043091EC046C1980
:101E10007D098E099F09061717072807390708F05B
:101E20008ACFC0CF81E0C3CF80E0C1CF82E0BFCFF7
:101E300083E0BDCF08950895E091960380919503C6
:101E4000E81730F4F0E0EB58FC4F808190E0089503
:101E50008FEF9FEF089590919603809195032FEF58
:101E60003FEF981748F4E92FF0E0EB58FC4F208142
:101E700030E09F5F90939603C90108958091950388
:101E800090919603891B990B0895CF92DF92EF9260
:101E9000FF920F931F93CF93DF937C01CB018A01B5
:101EA0002091ED04222389F0EB016B01C40ED51EB5
:101EB000CC15DD0569F06991D701ED91FC91019098
:101EC000F081E02DC7011995F3CF642F0E94C20D58
:101ED000C801DF91CF911F910F91FF90EF90DF909C
:101EE000CF900895CF93DF931F92CDB7DEB769836C
:101EF0002091ED042223F9F020911005203258F0B2
:101F000021E030E0FC013383228390E080E00F90F9
:101F1000DF91CF9108958091EE04E82FF0E0E15138
:101F2000FB4F998190838F5F8093EE04809310051F
:101F300081E090E0ECCF61E0CE0101960E94C20DFD
:101F4000F7CF90E080E0089508959C0161506B30D8
:101F500058F5E62FF0E08827EF54F04F8F4F0C94A0
:101F6000E536BC0FBF0FC20FD40FD40FD40FD40F60
:101F7000C50FCB0FCE0FD10F8BE496E008958EEAFC
:101F800095E0089581E195E0089529583F4FF901C2
:101F900080819181089527583F4FF9CF25583F4FB1
:101FA000F6CF23583F4FF3CF90E080E008952F9273
:101FB0003F924F925F926F927F928F929F92AF92D9
:101FC000BF92CF92DF92EF92FF920F931F93CF9326
:101FD000DF9300D01F92CDB7DEB7DC0192962C9133
:101FE00027FDFBC09C838B830E9449094B015C0148
:101FF0001A82BA818B2F90E0EB81FC8122A1022E04
:10200000000C330B281739070CF4E7C08E0F9F1F05
:10201000DC011296BC91B9836B2FCF010E94A50FF2
:102020007C01892B09F4C2C0E981E83040F080913D
:10203000210490912204E816F90609F0B7C0F9814D
:10204000CF2ED12CF6013596EE0FFF1F2B813C8150
:10205000E20FF31F00811181D701ED91FC91008403
:10206000F185E02DC7011995181619060CF09EC0D0
:10207000EB81FC81EC0DFD1DED5AFF4FA081360177
:10208000660C771CA11149C080EF0E949C0480E679
:102090000E949C04898180640E949C0401151105A2
:1020A00059F0D701ED91FC910084F185E02DC70135
:1020B0001995081719074CF0D701ED91FC91008490
:1020C000F185E02DC70119958C01EB81FC816E0E25
:1020D0007F1EF301E15AFF4F80819181801B910B9C
:1020E00097FD74C091838083101611060CF071C0A7
:1020F000D701ED91FC910284F385E02DC70119957C
:10210000D82E8F770E949C048D2D881F8827881FCA
:102110000E949C0401501109E7CFEB81FC81E60D80
:10212000F71DE15AFF4F2081318112161306F4F496
:10213000F601EE0FFF1FEE0FFF1F4B815C81E40FD6
:10214000F51F23A034A045A056A0B501A401421953
:102150005309640975091A012B014A2F50E070E0F8
:1021600060E0241635064606570650F501151105A0
:1021700009F58033910524F528173907BCF420E0D0
:10218000CC0CDD1CCC0CDD1CEB81FC81EC0DFD1DB1
:1021900083A294A2A5A2B6A2EB81FC81E60DF71D55
:1021A000E15AFF4F9183808321116ECFBA81BF5FC7
:1021B000BA831FCF10161106FCF680179107E4F2C0
:1021C000281739070CF060CF21E0DACF1182108296
:1021D0008BCF87EF0E949C04E9CF0F900F900F9058
:1021E0000F90DF91CF911F910F91FF90EF90DF90B3
:1021F000CF90BF90AF909F908F907F906F905F90A7
:102200004F903F902F900895CF9382EF860F8630A6
:10221000B8F4C62F8AE00E949C0482E0C33169F0C2
:1022200083E0C23151F084E0C13139F085E0C03142
:1022300021F087E0CF3009F486E0CF910C949C0424
:10224000CF91089581E04A30510509F080E008956A
:102250000895FC01E65BFF4F2081222331F01082BC
:10226000855B9F4F2FEFFC012083089564516230FE
:1022700030F486E00E949C0481E00C949C04089554
:102280009C018CEE860F8230B0F446305105A9F0E7
:10229000D901A65BBF4F8C91882371F0E62FF0E047
:1022A000E951F84F8081863031F41C92255B3F4F15
:1022B0008FEFF901808380E0089581E0089508950B
:1022C000CF93DF93EC012A813B8137FD14C080E07E
:1022D0002230310551F081E02330310531F0C90160
:1022E0004297049758F487E1821B0E94020A8FEFFD
:1022F0009FEF9B838A83DF91CF9108958FEFF5CF76
:1023000090E080E0623061F081E090E0633041F085
:102310008EEE860F843078F487E190E0861B910979
:102320006250643458F4019649F080E10E949C04A4
:1023300080E00C949C048FEF9FEFF2CF0895CF9331
:10234000DF9330E020E0623061F021E030E0633084
:1023500041F02EEE260F2430F0F427E130E0261B6A
:1023600031097EEF760F7434A0F42F3F320789F0E5
:102370004031510599F0FC014281538164171506E3
:1023800041F4EC01822F0E94020A8FEF9FEF9B83A2
:102390008A8380E004C02FEF3FEFE3CF81E0DF913D
:1023A000CF910895CF92DF92EF92FF92CF93DF9378
:1023B000EC010E9449096B01770FEE08FF08888540
:1023C0009985AA85BB85C816D906EA06FB066CF076
:1023D0004C815D816E817F81840F951FA61FB71F81
:1023E0008C159D05AE05BF054CF48A819B8197FF36
:1023F0000E945509C886D986EA86FB86DF91CF916F
:10240000FF90EF90DF90CF90089580919107909189
:102410009207A0919307B09194070196A11DB11D59
:102420008093910790939207A0939307B09394079A
:102430000895CF93DF93EC010E9449096E837F8357
:102440008887998783E190E09B878A87DF91CF9186
:1024500008956A37C1F44230B0F0F9014181F0E8E3
:102460004F9FA0011124F9012081240F352F311D28
:102470002115310529F0FC013387228781E0089579
:1024800021E030E0F8CF80E0089580E008950895DD
:102490000895CF92DF92EF92FF92F701D6012115B6
:1024A000310571F481E090E08D939C93DA018D9376
:1024B0009C9311821082FF90EF90DF90CF9008954F
:1024C0002150310980E022303105A8F780E490E006
:1024D0008D939C9381E090E0E9CF0F931F93CF936E
:1024E000DF938C01D62FC0E0D8019C968C91C81741
:1024F00098F4EC2FF0E03196EE0FFF1FE00FF11F84
:1025000080819181DC01ED91FC910084F185E02DC9
:102510006D2F1995CF5FE8CFDF91CF911F910F916C
:1025200008950F931F93CF938C01C0E0D8019C9620
:102530008C91C81790F4EC2FF0E03196EE0FFF1F4E
:10254000E00FF11F80819181DC01ED91FC9106800B
:10255000F781E02D1995CF5FE9CFCF911F910F91B2
:102560000895CF93C0E08AEC8C0F62E0803128F0B0
:102570008EEF8C0F843420F461E08C2F0E94A9042C
:10258000CF5FC63481F784E099E0CF910C9491122B
:10259000DF92EF92FF920F931F93CF93DF93EC01A3
:1025A000D62E8A01F12CE12C8CA5F816A8F4EF2D7B
:1025B000F0E03196EE0FFF1FEC0FFD1F808191813F
:1025C000DC01ED91FC910280F381E02DA8016D2DDD
:1025D0001995E82AF394E8CF8E2DDF91CF911F91C2
:1025E0000F91FF90EF90DF9008950895625064344A
:1025F00030F481E00E949C0481E00C949C040895D6
:10260000CF938EEF860F8434B0F44130510599F4A6
:10261000E62FF0E0E951F84F80818F3761F0C62F47
:1026200060E08C2F0E946A0861E08C2F0E9498085D
:1026300081E0CF91089580E0FCCF80E008951F9362
:10264000CF93DF939EEF980F943480F4C82FD0E09F
:10265000C556D84FFE01E45BFF4F9081913031F4B5
:10266000162F0E946A08CE56DF4F1883DF91CF9154
:102670001F9108959F92AF92BF92CF92DF92EF92F7
:10268000FF920F931F93CF93DF93893008F08BC095
:102690008F5FC82FCC0FCC0FCC0FAC2EC73410F0EF
:1026A00096E4A92ED62F88EFB82EBC0EEB2CF12C79
:1026B00010E001E08E2DEA1460F59EEF9E0D94343B
:1026C000C8F4A7014556584FFA01E45BFF4F20813B
:1026D000223080F4902F9D2399249394911101C06E
:1026E000912CBA016E567F4F6B01213041F4102BB3
:1026F000F6019082000FFFEFEF1AFF0ADBCF99235C
:10270000B9F3FB019081913099F362E00E9498083F
:10271000EFCF10FF05C06D2F61708B2D0E946A08EE
:1027200011FF06C06D2F627089EF8C0F0E946A083E
:1027300012FF06C06D2F64708AEF8C0F0E946A082A
:1027400013FF06C06D2F68708BEF8C0F0E946A0814
:1027500014FF06C06D2F60718CEF8C0F0E946A0809
:1027600015FF06C06D2F60728DEF8C0F0E946A08F6
:1027700016FF06C06D2F60748EEF8C0F0E946A08E2
:1027800017FF11C06D2F60788FEF8C0FDF91CF9105
:102790001F910F91FF90EF90DF90CF90BF90AF907F
:1027A0009F900C946A08DF91CF911F910F91FF9039
:1027B000EF90DF90CF90BF90AF909F9008950895D5
:1027C000FC0132960B961192118A1086E817F907D0
:1027D000D1F708956250643460F480E00E949C0454
:1027E00081E00E949C048BE00E949C0481E00C9498
:1027F0009C040895CF932EEF260F243488F5E62FFE
:10280000E695E695E695E80FF92FF11D8489962F58
:10281000977021E030E001C0220F9A95EAF7411548
:10282000510519F04B305105B9F4C62F282B248BD4
:10283000452B31F460E08C2F0E94980881E00AC09B
:1028400062E08C2F0E949808EC2FF0E0E35DF74FD8
:1028500081E08083CF91089520952823248BEECFAB
:1028600080E0F8CFDF92EF92FF920F931F93CF9308
:10287000DF93662309F47CC08C010E5F1F4F8FE14C
:10288000089FD02C1124D0E0E12CF80181918F0118
:10289000882309F468C0F1888EEF8D0F843450F4DA
:1028A000CF2DC170F0FE07C08D2F0E944108C1E0FE
:1028B000892B09F4C0E08FEF8D0F843468F4F1FEAA
:1028C0000BC08D2D800F880F880F880F87500E94B6
:1028D0004108892B09F0C260F2FE07C082E08D0F2B
:1028E0000E944108892B09F0C460F3FE07C083E011
:1028F0008D0F0E944108892B09F0C860F4FE07C0C3
:1029000084E08D0F0E944108892B09F0C061F5FE1B
:1029100007C085E08D0F0E944108892B09F0C06235
:10292000D034A1F0F6FE07C086E08D0F0E9441086A
:10293000892B09F0C064DF3349F0F7FE07C087E058
:102940008D0F0E944108892B09F0C068F801818928
:10295000C8238085C81739F06C2F70E08E2D0E9437
:10296000FD05F801C087E394D85FF9E0EF128DCF41
:10297000DF91CF911F910F91FF90EF90DF9008951D
:10298000EF92FF920F931F93CF93DF93893008F05C
:1029900071C0E0908808F0908908E80EF11CF701FA
:1029A0006283672B09F466C0082F1489D82FDD0FC6
:1029B000DD0FDD0F8EEF8D0F843450F4C12FC17009
:1029C00010FF07C08D2F0E944108C1E0892B09F438
:1029D000C0E08FEF8D0F843448F411FF07C081E011
:1029E0008D0F0E944108892B09F0C26012FF07C0B9
:1029F00082E08D0F0E944108892B09F0C46013FF0B
:102A000007C083E08D0F0E944108892B09F0C86040
:102A100014FF07C084E08D0F0E944108892B09F044
:102A2000C06115FF07C085E08D0F0E944108892B0A
:102A300009F0C062D034A1F016FF07C086E08D0F08
:102A40000E944108892B09F0C064DF3349F017FF69
:102A500007C087E08D0F0E944108892B09F0C068EC
:102A6000F7018489C8236C2F70E0802F0E94FD0538
:102A7000F701C387DF91CF911F910F91FF90EF90E6
:102A8000089583B78E7F83BF08952F923F924F9210
:102A90005F926F927F928F929F92AF92BF92CF92EE
:102AA000DF92EF92FF920F931F93CF93DF9300D0AB
:102AB00000D000D01F92CDB7DEB7662309F48DC0D9
:102AC000DC0112962C911297222309F486C09A8772
:102AD0008987FC0187809084A184B28413962D910C
:102AE0003D914D915C91169729833A834B835C838A
:102AF0000E9449092B013C01E985FA85878190856F
:102B0000A185B285481659066A067B0640F14981BF
:102B10005A816B817C819A01AB0160E070E0CB014E
:102B200029833A834B835C836D837E838F8398876D
:102B30009401A50160E070E080E090E0A980BA8097
:102B4000CB80DC80E12CF12C00E010E00E94ED361F
:102B50001201510163010E94F63608F03EC083B7AE
:102B6000816083BFA985BA851B968C91823059F00C
:102B7000833009F44BC09EEE980F17E1181B943078
:102B800018F01FEF0FC010E041E050E0E985FA8532
:102B90008485811102C050E040E061E475E1812F3D
:102BA0000E948B0983B7817F846083BF64E670E0F5
:102BB00080E090E00E94160988956AE070E080E06D
:102BC00090E00E94160983B78E7F83BF812F0E94F9
:102BD000020AA985BA8512961C922A960FB6F89415
:102BE000DEBF0FBECDBFDF91CF911F910F91FF9040
:102BF000EF90DF90CF90BF90AF909F908F907F909D
:102C00006F905F904F903F902F90089511E0BCCF50
:102C1000CF93DF93EC010E9449096F8378878987FE
:102C20009A87DF91CF9108958EEF860F8C3018F040
:102C30006C52633030F483E00E949C0488E00C9472
:102C40009C040895FF920F931F93CF93DF93F90194
:102C50006F3609F0F2C0423008F4EFC0F080C18155
:102C6000D0E0423091F0828120E8829FC00111249F
:102C7000C82BD92B433049F0838190E090E4899FA1
:102C8000902D88271124C82BD92B0F2D10E0F80187
:102C9000E951F84F80818250823008F035C061E000
:102CA0008F2D0E949808209729F460E08F2D0E94B4
:102CB0006A082AC0CF3FD10511F461E0F7CFF801CF
:102CC000EB57F84FE491E150E23108F0B1C0F0E089
:102CD0008827E259F94E8F4F0C94E53680168616F8
:102CE0008B1695169F161817A916B116B916C31686
:102CF000CD16D716E616F0161817FA1604170E1783
:102D000084B5806884BDC7BD81E098C084B5806209
:102D100084BDC8BDF9CF8091800080688093800019
:102D2000D0938900C0938800EFCF809180008062AB
:102D300080938000D0938B00C0938A00E5CF809170
:102D40008000886080938000D0938D00C0938C00B9
:102D5000DBCF8091B00080688093B000C093B30057
:102D6000D3CF8091B00080628093B000C093B40054
:102D7000CBCF80919000806880939000D093990091
:102D8000C0939800C1CF80919000806280939000A2
:102D9000D0939B00C0939A00B7CF80919000886039
:102DA00080939000D0939D00C0939C00ADCF809104
:102DB000A00080688093A0008091A0008F7B80930A
:102DC000A000D093A900C093A8009ECF8091A0003E
:102DD00080628093A000D093AB00C093AA0094CFF0
:102DE0008091A00088608093A000D093AD00C09334
:102DF000AC008ACF80912001806880932001D0931D
:102E00002901C093280180CF8091200180628093A6
:102E10002001D0932B01C0932A0176CF809120010D
:102E2000886080932001D0932D01C0932C016CCF3A
:102E3000C038D1050CF041CF38CF80E0DF91CF9181
:102E40001F910F91FF9008950895EF92FF920F93B5
:102E50001F93CF93662319F17C01CAEC10E000E0C8
:102E6000C031C0F4F801E951F84F8081823091F40B
:102E7000F701828193810C2E02C0959587950A9463
:102E8000E2F780FF07C0802F0E94D408BC018C2F7E
:102E90000E94C1050F5F1F4FCF5FC03109F7CF916F
:102EA0001F910F91FF90EF900895FC011382128201
:102EB00008956653603130F482E00E949C048AE0F9
:102EC0000C949C040895CF93DC016031B0F4129609
:102ED0008D919C911397E1E0F0E0062E02C0EE0F79
:102EE000FF1F0A94E2F741110AC0E095F095E8232C
:102EF000F9231396FC93EE931297CF910895E82B44
:102F0000F92B1396FC93EE9312978091730881111D
:102F1000F4CF822FC62F0E94D408BC018C2FCF91F2
:102F20000C94C105CF93DF93FC016936B9F480EFAF
:102F30000E949C048AE60E949C04CAEC8C2FC0313B
:102F400008F08FE70E949C04CF5FC031B9F787EF8C
:102F50000E949C0481E0DF91CF910895643601F5D1
:102F60004230F0F0D9016C91A62FB0E050E040E083
:102F7000942FEA01E697AC17BD0731F04F5F5F4F22
:102F800046345105A9F790E041E0D90111968C91A2
:102F9000813009F040E0292FCF010E946317DACF7A
:102FA00080E0D9CFCF93C62F6AEC6C0F603188F4E4
:102FB0002C2F4230510551F441E00E94631760E02C
:102FC0008C2F0E94980881E0CF91089540E00E94E4
:102FD000631780E0F9CFCF93DF93E0919707F091EB
:102FE0009807A82FB0E050E040E0242FEA01E697D0
:102FF000AC17BD0731F04F5F5F4F46345105A9F75D
:1030000020E041E06130710509F040E0682FCF0118
:10301000DF91CF910C946317089508950895089552
:1030200008956250603330F484E00E949C048EE086
:103030000C949C0408956250643430F48FE00E9434
:103040009C0480E40C949C0408956253643030F432
:103050008CE00E949C0481E00C949C04089580E024
:103060000895089580E0089580E008950895FC0192
:1030700001900020E9F73197AF01481B590BBC01C3
:1030800088EE96E00C9460060F931F93CF93DF9326
:103090000E94010580919B0790919C07DC01ED91B6
:1030A000FC910190F081E02D69E7199580919B07D3
:1030B00090919C07DC01ED91FC910190F081E02D55
:1030C00060919F07199580919B0790919C07DC0167
:1030D000ED91FC910190F081E02D6091A007199590
:1030E000A0919D07B0919E07ED0109900020E9F79E
:1030F0002197CA1BDB0B10E000E0C017D10779F065
:10310000E0919D07F0919E07E00FF11F8081082E4E
:10311000000C990B0E94DA040F5F1F4FEECFDF9176
:10312000CF911F910F910C94C104EF92FF920F93D6
:103130001F93CF93DF938C010E94AB347C0180916D
:103140007408811107C0C8010E947A078AE593E0DC
:103150000E9437180E94010580919B0790919C075F
:10316000DC01ED91FC910190F081E02D61E7199572
:10317000D0E0C0E0CE15DF054CF4F801EC0FFD1FE8
:10318000849190E00E94DA042196F4CFDF91CF91F0
:103190001F910F91FF90EF900C94C1048F929F921A
:1031A000AF92BF92EF92FF920F931F93CF93DF9353
:1031B0006D3709F062C0423060F481E0DF91CF9159
:1031C0001F910F91FF90EF90BF90AF909F908F90C5
:1031D00008958901C42F7C01F9018081811120C0EB
:1031E0008181F701228133818217130621F037FD97
:1031F00017C08F37A9F480E02230310551F081E00B
:103200002330310531F0C9014297049730F587E149
:10321000821B0E94020A8FEF9FEFF7019383828344
:10322000C53058F2F8012081C181C23041F1C3306C
:1032300031F18EEE8C0F843090F487E190E08C1B9E
:103240009109213009F0B9CFC63410F40196D1F4B8
:1032500086ED96E00E949518B0CF8FEFDACF8FEF12
:103260009FEFEFCF80E04BC081E049C0801791070E
:1032700009F454C080EB96E0EDCF80E09FCF213081
:1032800009F09BCFF801D2818481F0E88F9FC001C3
:103290001124F8012381822B4C01092E000CAA086D
:1032A000BB08892B59F00E944909F7016087718793
:1032B0008287938784829582A682B782F701828172
:1032C00093810C2F10E08F3F980781F6D25050E089
:1032D00040E0D43040F4ED2FF0E0EA5EFD4F408155
:1032E000042E000C550BC23009F4BCCFC33009F4D6
:1032F000BBCF8EEE8C0F843030F487E18C1B65E001
:1033000072E10E948B09F7011383028360E08C2F26
:103310000E94980860E18C2F0E94A904C8010E94B5
:1033200055094BCF2F923F924F925F926F927F92AF
:103330008F929F92AF92BF92CF92DF92EF92FF92C5
:103340000F931F93CF93DF9300D000D0CDB7DEB79C
:103350005C01062F942E79016B3609F457C06D3647
:1033600071F010E0663609F03BC1EAE0E41708F4BA
:103370007CC084E896E00E94951880E02EC044232B
:10338000E1F3D9010C910634C0F780EF0E949C0450
:103390008EE60E949C04802F0E949C0410E005563B
:1033A000184FF801E45BFF4F80810E949C04F801F4
:1033B000EE56FF4F1081812F8F770E949C04812F42
:1033C00090E017FF06C0880F892F881F990B0E9475
:1033D0009C0487EF0E949C0481E026960FB6F89427
:1033E000DEBF0FBECDBFDF91CF911F910F91FF9038
:1033F000EF90DF90CF90BF90AF909F908F907F9095
:103400006F905F904F903F902F90089580EF0E94B3
:103410009C048CE60E949C0407EE17E0F12CF80156
:1034200081918F018F37C9F0E12CD5019C968C9149
:10343000E81698F4EE2DF0E03196EE0FFF1FEA0D3E
:10344000FB1D80819181DC01ED91FC910190F08167
:10345000E02D6F2D1995E394E8CF8FE70E949C042F
:10346000F394B6E4FB12DBCFB4CF11E0D9018C9119
:10347000811101C010E0F701818190E09E838D836E
:1034800084E090E09C838B8383814480512C712C59
:10349000612C47E0440C551C661C771C4A95D1F7FB
:1034A000482A420135802681878190E0B0E0A0E083
:1034B00057E0880F991FAA1FBB1F5A95D1F7408567
:1034C00050E070E060E0AEE0440F551F661F771FCC
:1034D000AA95D1F7842B952B822B418550E070E083
:1034E00060E0B5E1440F551F661F771FBA95D1F70D
:1034F000482B592B9285892F90E0B0E0A0E00CE199
:10350000880F991FAA1FBB1F0A95D1F7842B952BF3
:103510009A838983D501ED91FC910684F785E02D8E
:103520009E012F5F3F4F6901CE0103967C01032D61
:103530009201AE014B5F5F4F612FC501199581115B
:1035400027C0212CD5019C968C91281608F5E22DD8
:10355000F0E03196EE0FFF1FEA0DFB1D8081918197
:10356000DC01ED91FC910684F785E02D9E012F5F33
:103570003F4F6901DE0113967D01032D9401AE01D9
:103580004B5F5F4F612F1995811102C02394DACFF1
:1035900080EF0E949C0486E60E949C04812F0E947A
:1035A0009C048D810E949C048B810E949C04842D2C
:1035B0008F770E949C04C201880F892F881F990B66
:1035C00091958F770E949C04832D0E949C046981B1
:1035D0007A81072E000C880B990B0E942306F9CEE6
:1035E000F50184A5181708F0C8CEE12FF0E0319658
:1035F000EE0FFF1FEA0DFB1D80819181DC01ED9133
:10360000FC910480F581E02D9701492D602F1995DB
:103610008111E3CE1F5FE4CFCF93DF93EB01A09145
:103620009507B0919607ED91FC9111970280F38177
:10363000E02DAB01682FCD011995811109C0CF375D
:10364000D10531F08BE496E0DF91CF910C94951881
:10365000DF91CF910895FC0112AE9FB7F89480914D
:103660007403882319F0815080937403809174034C
:10367000811105C08CB58F7B8CBD109273039FBFE9
:1036800083EC95E00C949518FC0122AD21110C946B
:103690002B1B0895DC018EEC860F843090F44C30A7
:1036A000510589F0DA968C91DA97882359F0E62F44
:1036B000F0E0E951F84F80818C3019F4CD010E947F
:1036C0002B1B80E0089581E008954F925F926F92E6
:1036D0007F928F929F92AF92BF92CF92DF92EF92A2
:1036E0000F931F93CF93DF936C01D62F5A01122FA4
:1036F0004F3F540709F492C081E08093ED0460933A
:103700000F051092EE0410921005642F85E897E0E3
:103710000E94720F802F0E942A0EF601E45BFF4F79
:10372000808191818230910538F0880F991F880F30
:10373000991F05970197F1F70E94F1082B013C01B1
:103740008091E70481116CC0C12F113208F0C0E2F2
:1037500081E08093E7048093E6049FEF9093E50473
:103760001092E4049C0F9093E3048093C204909120
:10377000C2048D2F880F892B8093C2048091C104CD
:10378000813009F0A1C01092C1040E94F1082B0100
:103790003C018091C2048093BB008091E904909128
:1037A000EA04A091EB04B091EC04892B8A2B8B2BBB
:1037B000A1F00E94F1082091E9043091EA044091BF
:1037C000EB045091EC0464197509860997092617D2
:1037D00037074807590708F444C08091BC0083FDAF
:1037E000D8CF85EC8093BC000E94F1082B013C01EE
:1037F0008091E704813009F469C08091E4048C175A
:1038000010F4C091E404A3ECB4E0E5E7F3E080E059
:103810008C1761F19D9191938F5FFACFA12C8CCF82
:103820008091E9049091EA04A091EB04B091EC043A
:10383000892B8A2B8B2B09F483CF0E94F1082091CE
:10384000E9043091EA044091EB045091EC046419CE
:10385000750986099709261737074807590708F099
:103860006FCF8091E8040E94140EC0E0109296037E
:10387000C0939503212F30E08C2F90E02817390753
:103880000CF046C08FEF96E00E949518F601A2A6B4
:103890003601FBE26F0E711C912C812CA12EB12CF4
:1038A0008A149B04DCF590919503809196039817F8
:1038B000A9F185E897E00E942B0F9FEF891A990ADA
:1038C000F30181933F01ECCF85EE8CCF8091E90429
:1038D0009091EA04A091EB04B091EC04892B8A2B1F
:1038E0008B2B09F485CF0E94F1082091E9043091D7
:1038F000EA044091EB045091EC04641975098609BF
:103900009709261737074807590708F071CFA9CF3D
:10391000821793070CF0BACF1C2FB8CF0E94010575
:1039200087E70E949C048D2F0E949C048E2D0E948C
:103930009C04E601AA96D12CC12C899190E00E94AA
:10394000DA04FFEFCF1ADF0AAC14BD04B4F7DF913D
:10395000CF911F910F91EF90DF90CF90BF90AF90DC
:103960009F908F907F906F905F904F900C94C104C8
:10397000CF92DF92EF92FF920F931F93CF93DF933B
:103980006C012BE4C20ED11CF601208127FD28C05A
:10399000EC0110E085E0F82E812F90E0F601208107
:1039A000022E000C330B28173907D4F0F89EF001D3
:1039B000F99EF00D1124EC0FFD1F0196F89ED00129
:1039C000F99EB00D1124AC0FBD1F43815481E12C31
:1039D00006812C916281CE010E94651B1F5FDCCFA6
:1039E000DF91CF911F910F91FF90EF90DF90CF90DB
:1039F0000895CF92DF92EF92FF920F931F93CF9390
:103A0000DF93E42EE901663729F0683709F4FBC03B
:103A100010E01CC0FC01E65BFF4F10811123B1F0E8
:103A2000398135FF05C08DE297E00E9495180EC0E0
:103A3000688141E036FB002700F90427232F287115
:103A4000283009F43EC060F42223C9F0812FDF91B1
:103A5000CF911F910F91FF90EF90DF90CF9008953D
:103A6000203109F44BC0283189F7EC01C55BDF4FE9
:103A7000388113160CF481C08FEF8883E7CF409311
:103A8000ED0460930F051092EE041092100502E011
:103A90000E1578F4FE01E00FF11D61816795662730
:103AA00067958081680F85E897E00E94720F0E5F2E
:103AB000EFCF81E00E942A0E83E191E00197F1F7B8
:103AC000C5CF7A812B8146E0E41211C0A0E82A9F7D
:103AD000A0011124470F511D2D81279522272795DD
:103AE0007C81270F3770E32E0E94651BAFCF27958F
:103AF00022272795270F4FEF5FEFF4CFFC01E55BFF
:103B0000FF4F408147301CF08CE197E08ECFAA81B7
:103B10003B81B6E0EB122AC050E8359F900111249A
:103B2000A20FB32FB11D3D813795332737952C81D7
:103B3000320F4F5F4083042E000C550B25E0249F6D
:103B4000F001259FF00D1124E80FF91F6283B48363
:103B5000A3834F5F5F4F249FB001259F700D1124F9
:103B6000860F971FDC013C93068370CF3795332770
:103B700037953A0FAFEFBFEFDCCF20E0E32E032EF7
:103B8000000CFF0875E0422F50E0E416F50664F0E3
:103B9000749FF001759FF00D1124E80FF91F428109
:103BA000641719F02F5FEFCF20E045E0622F70E03F
:103BB000E616F7062CF1283008F5FB0131964E9FEA
:103BC000D0014F9FB00D1124A80FB91F12965C9120
:103BD0001297469FF001479FF00D11246F01C80E08
:103BE000D91EF601528313966D917C9114977483BC
:103BF00063835285558316965C9156832F5FD6CF8B
:103C00003150388323CF2981B0E82B9FA0011124A4
:103C10002881240F352F311D2115310529F0FC0194
:103C2000E45BFF4F318320838C01065B1F4FF8015B
:103C30008081811133C0D0E0C0E08C2F845182306C
:103C400070F4FE01E951F84F80818F3739F166E059
:103C50008C2F0E94A90466E08C2F0E949808219660
:103C6000C634D10551F781E0D8018C930E94E90D4B
:103C700010929603109295031092EE041092100584
:103C80000E94F60D8AE19FE09093B9038093B803F8
:103C90008BE19FE09093BD038093BC03F8011081FA
:103CA000D5CECF9343305105C1F48EEF860F8C30C3
:103CB00020F084ED860F833080F4C62F61E08C2FD6
:103CC0000E94980861E08C2F0E94980860E08C2F79
:103CD0000E946A0881E0CF91089580E0FCCF0C94A7
:103CE000AF370C94AF371F93CF93DF93EC0118E0FD
:103CF000612FCE010E94A50F009711F00E94AF37EF
:103D00001F5F1C30A9F78FEF8AA3FE013A96CE0100
:103D10008396DE01AD5ABF4FAE014E5D5F4F1192EB
:103D20001192EC011992199219921992CE011D92D9
:103D30009F012D5A3F4FE90119821882E417F507B8
:103D400071F7DF91CF911F9108950C94AF370C94C8
:103D5000AF370C94AF370C94AF370C94AF370C944B
:103D6000AF370C94AF370C94AF370C94AF370C943B
:103D7000AF370C94AF37CF93DF93C62FD0E0CC0F83
:103D8000DD1FC80FD91FBA91AA911097A1F0EC912D
:103D90002E2F30E0F901EE0FFF1FE20FF31FE85D59
:103DA000FB4F908196FF02C09F7B9083CD010E94C4
:103DB000AF3719821882DF91CF9108950F931F9327
:103DC000CF938C01C0E08EEF8C0F803320F46C2FEA
:103DD000C8010E94BB1ECF5FC634A9F7CF911F91C7
:103DE0000F910895CF93DF93FC012281222341F0AC
:103DF000EC01858196810E94AF371E821D821A8256
:103E0000DF91CF910895CF93DF93EC01625064343A
:103E100070F481E04F30510559F08A81882341F0D8
:103E20008D819E810E94AF371E821D821A8280E0A2
:103E3000DF91CF9108954F925F926F927F928F9210
:103E40009F92AF92BF92CF92DF92EF92FF920F9329
:103E50001F93CF93DF93CDB7DEB7A1970FB6F8943A
:103E6000DEBF0FBECDBF7C015A016B010E94AB3497
:103E70004C0180917408811126C0C7010E947A0705
:103E800019A29501A6018E010F5D1F4F8AE0482EF1
:103E9000512C612C712CCA01B901A30192010E941D
:103EA0000036605DD8016E938D0121153105410505
:103EB000510589F7109719F0CD010E9437188AE54E
:103EC00093E00E9437180E94010580919B07909112
:103ED0009C07DC01ED91FC910190F081E02D61E700
:103EE000199510E000E00815190554F4F701E00FEA
:103EF000F11F849190E00E94DA040F5F1F4FF3CF0F
:103F000020E1FE0131964F01AF01B501C6010E94CB
:103F1000B434F40101900020E9F731977F01E818EB
:103F2000F908B7016F5F7F4F90E080E00E9438385A
:103F30008C010097C9F0DC011C92B4010E94293960
:103F4000D12CC12CCE14DF0491F080E001151105B5
:103F500021F0F801EC0DFD1D808190E00E94DA0453
:103F6000BFEFCB1ADB0AEECFF12CE12CE9CF0E9498
:103F7000C10401151105C9F0C801A1960FB6F89446
:103F8000DEBF0FBECDBFDF91CF911F910F91FF908C
:103F9000EF90DF90CF90BF90AF909F908F907F90E9
:103FA0006F905F904F900C94AF37A1960FB6F89436
:103FB000DEBF0FBECDBFDF91CF911F910F91FF905C
:103FC000EF90DF90CF90BF90AF909F908F907F90B9
:103FD0006F905F904F9008952F923F924F925F9213
:103FE0006F927F928F929F92AF92BF92CF92DF9209
:103FF000EF92FF920F931F93CF93DF93CDB7DEB76E
:10400000C754D1090FB6F894DEBF0FBECDBF4C0127
:104010006A01DC01DA968C9181111EC082EB95E079
:104020000E949518C95BDF4F0FB6F894DEBF0FBE34
:10403000CDBFDF91CF911F910F91FF90EF90DF9057
:10404000CF90BF90AF909F908F907F906F905F9038
:104050004F903F902F9008952223D9F06430D8F0EC
:10406000F6014081F401B12CA12C8281481709F49A
:1040700027C13FEFA31AB30A379688E0A816B10408
:10408000A1F750E070E060E088E695E00E941B1F19
:10409000C9CF663028F783E995E0C2CF87E08A9DD3
:1040A000F0018B9DF00D1124E80DF91D9581911102
:1040B00016C0F6019E012F5F3F4FD90194E07D01AC
:1040C000E21AF30A3296961708F008C183818795A1
:1040D000882787954281840F8D939E5FF0CF64502F
:1040E000770B869F7001879FF00C112463E0F59495
:1040F000E7946A95E1F7B1E4EB16F1041CF08DE367
:1041000095E08ECF1601E4E02E0E311C9E012F5F4C
:104110003F4F2901F90130E020E057E0652E712C76
:10412000CF01841995098E159F050CF0D7C0C901E0
:10413000B3010E94D136D101A60FB71F11966C9121
:104140001197A301481B590B01C0660F4A95EAF766
:104150004C9150E002C0559547958A95E2F7642B43
:104160006193285F3F4FDCCF8093720311C1F70149
:104170003197E80FF91F0DB407FEFDCF8EB5808390
:1041800080917303882359F09FB7F89420917303AB
:1041900080917203213009F05BC08DBB9FBFF60197
:1041A0008281882361F087E08A9DF0018B9DF00D6C
:1041B0001124E80DF91D61E084810E946A08013034
:1041C000110509F02FCF0E94010588E60E949C048A
:1041D00085E00E949C04D6018C910E949C04F6010B
:1041E00081810E949C048E2D0E949C0427E02A9DC0
:1041F000C0012B9D900D1124880E991ED401159697
:104200008C91FE0131965F018F01882309F44BC028
:104210004F0110E000E0512C48E0642E712CC401E5
:104220008A199B098E159F05B4F5D4018D914D0116
:10423000C82ED12C0115110569F48F770E949C04BA
:10424000CC0CCD2CCC1CDD085C2C01E010E0E7CFC1
:104250008FBFA5CFC601002E01C0880F0A94EAF7D0
:104260008F7785290E949C040630110541F4C60110
:10427000959587950E949C0410E000E0D0CF0F5FD9
:104280001F4FC301801B910B02C0D594C7948A9520
:10429000E2F75C2CC4CF012B19F0852D0E949C0401
:1042A0000E94C104BFCEC8018A199B098E159F05C3
:1042B000BCF7F80181918F0190E00E94DA04F3CFFE
:1042C000222309F4EBCED6011396EC90F12CA70132
:1042D00070E060E0CE0101960E94223902301105A3
:1042E00069F580EF22968FAF229788E623968FAFED
:1042F000239785E024968FAF2497D6018C9125963D
:104300008FAF259711968C9126968FAF269727967B
:104310001FAE279787EF28968FAF289780919B072E
:1043200090919C07DC01ED91FC910280F381E02DDE
:1043300047E050E0BE016F5B7F4F199587E08A9D93
:10434000F0018B9DF00D1124E80DF91D84818F3F44
:1043500019F060E00E946A0887E08A9DF0018B9D59
:10436000F00D11243696E80DF91D20819181809180
:104370007303882369F08FB7F89430917303313059
:1043800009F0F2CE3DB3309372033DB33DBB8FBF16
:104390002CBD9DBDE114F10409F4F2CE89818EBDDE
:1043A000FE0131969701CF012150310909F4DFCE8A
:1043B00051810DB407FEFDCF4EB55EBD4193F4CFE4
:1043C000CF92DF92EF92FF920F931F93CF93DF93E1
:1043D000CDB7DEB7C054D1090FB6F894DEBF0FBE1B
:1043E000CDBF6096EEACFFAC6097C7010E94AB34C6
:1043F0008C0180970CF056C00E94010580919B07AC
:1044000090919C07DC01ED91FC910190F081E02DF1
:1044100061E71995DE01919690E080E0AD0180178B
:1044200091073CF4F701E80FF91FE491ED93019631
:10443000F6CFFA01E00FF11F10828E010F5F1F4FC0
:1044400080E2F80111928A95E9F79E01205B3F4FC7
:1044500060E270E0C8010E943039809174088111D7
:1044600007C0C8010E9437188AE593E00E943718F8
:10447000F80101900020E9F731977F01E01AF10A75
:104480006801C601801B910B8E159F054CF4D60167
:104490008D916D01082E000C990B0E94DA04F1CF6A
:1044A0000E94C104C05CDF4F0FB6F894DEBF0FBEA0
:1044B000CDBFDF91CF911F910F91FF90EF90DF90D3
:1044C000CF900895CF93DF93C82FD62F9A01809174
:1044D000950790919607DC01ED91FC910480F581A0
:1044E000E02D462F6C2F1995811116C01F92DF9376
:1044F0001F92CF938CE596E09F938F938BE997E083
:104500009F938F930E94E0218DB79EB708960FB6B8
:10451000F8949EBF0FBE8DBFDF91CF910895CF92CB
:10452000DF92EF92FF920F93CF93DF93EC01862FF0
:10453000F60126363105E1F52081318181E0211532
:10454000310509F480E08A8348EE53E0249FC001DE
:10455000259F900D349F900D1124092E000CAA0B5D
:10456000BB0B8B839C83AD83BE83232BE1F0BF9376
:10457000AF939F938F9382E296E09F938F938BE903
:1045800097E09F938F930E94E0210E9449096F83D7
:10459000788789879A878DB79EB708960FB6F89463
:1045A0009EBF0FBE8DBFD7011D921C9281E01DC022
:1045B0002736310551F59EEF900F923070F09EEE48
:1045C000900F943050F085E090E0F7019183808364
:1045D00089EF95E00E949518E9CF882371F00B8749
:1045E00090819C87D7011D921C92DF91CF910F91F2
:1045F000FF90EF90DF90CF90089582E090E0D70198
:104600008D939C9311821082D1CF80E0EECF9F9248
:10461000AF92BF92CF92DF92EF92FF920F931F93D0
:10462000CF93DF93683649F4D901F42EEC014111A0
:1046300006C084EB93E00E94951880E027C0A90192
:104640004F5F5F4FFA949C91983008F0B4C1E92F06
:10465000F0E08827E15DFC4D8F4F0C94E536372361
:10466000B123D824D124C924DB24C524D5248AAD80
:1046700081110CC081E0F81204C011968C9188233E
:1046800089F081E094E00E94951881E0DF91CF915C
:104690001F910F91FF90EF90DF90CF90BF90AF9060
:1046A0009F900895809119088F3781F16CE082E323
:1046B0000E94A90460E082E30E94980880911A0891
:1046C0008F3721F16CE083E30E94A90461E083E36A
:1046D0000E94980880911B088F37C1F06CE084E33A
:1046E0000E94A90461E084E30E949808FAAECFB763
:1046F000F89480917403882361F0809174038F5F34
:1047000080937403CFBF85EF93E0BDCF8DED93E031
:10471000BACFE8E7F8E08491EEEBF8E09491E82F67
:10472000F0E0EE0FFF1FE559F84FA591B491EC9121
:10473000E92321F461E085E30E946A0861E085E3F2
:104740000E9498088CB580618CBD8CB580648CBD4E
:1047500061E084E30E94980861E083E30E94980886
:10476000CCCF99E09F1518F08AEF94E08CCF11968A
:104770009C901197BE019E010FEF1FEF90E080E02B
:10478000F9014281491101C08C010196295F3F4F17
:1047900088309105A9F70F3F100799F490E080E069
:1047A000FB012085211101C08C010196695F7F4FBB
:1047B00088309105A9F788EC94E00F3F100709F4C1
:1047C00062CF18968C911897877F19F08AE994E048
:1047D0005ACF892D837049F0492D50E070E060E098
:1047E0008CE694E00E941B1F50CF87E0809FF00171
:1047F000819FF00D1124EC0FFD1F928212968C9177
:104800001297982F917083FB882780F985831396E0
:104810008C91139714964C91149750E070E060E0DF
:1048200027E0440F551F661F771F2A95D1F715966D
:10483000CC901597D12CF12CE12C3EE0CC0CDD1C5A
:10484000EE1CFF1C3A95D1F74C295D296E297F2972
:10485000482B1696CC901697D12CF12CE12C85E1A3
:10486000CC0CDD1CEE1CFF1C8A95D1F74C295D2970
:104870006E297F291796CC901797D12CF12CE12C1B
:104880002CE1CC0CDD1CEE1CFF1C2A95D1F7C42AB0
:10489000D52AE62AF72A19968C91199783831A96B6
:1048A0008C91848381E08087C114D104E104F104F8
:1048B00039F430E4C32E3BE4D32E3CE4E32EF12C58
:1048C00040E052E16AE770E080E0C416D506E606F3
:1048D000F70640F476956795579547958F5F863034
:1048E000A1F787E021E0282730E5911101C030E7EA
:1048F00097E0909F5001919FB00C1124F5013696DE
:10490000EC0FFD1F922F9695932B908380958170CD
:104910008183AC0EBD1EF501838180FD2CC08FEF1D
:104920008483FF92EF92DF92CF9227E0209FC00115
:10493000219F900D1124C80FD91F8C81282F082E7C
:10494000000C330B3F938F931F930F931F929F92F3
:1049500085E294E09F938F938BE997E09F938F93E9
:104960000E94E0218DB79EB70E960FB6F8949EBFB9
:104970000FBE8DBF8ACE61E084810E94A90461E0F0
:10498000F50184810E949808CCCFCE010E942B1B98
:104990007CCE01E010E021E06F2DCE010E94EC1FE3
:1049A00074CE10E000E020E0F7CF02E010E0FBCF93
:1049B00001E010E0F8CF492F50E070E060E087E2BE
:1049C00095E010CF85ED8093BC008091E904909133
:1049D000EA04A091EB04B091EC040796A11DB11D6F
:1049E00023E0B695A795979587952A95D1F72091BD
:1049F000BC0024FD03C01092E70408954091E9042F
:104A00005091EA046091EB047091EC04452B462B25
:104A1000472B69F30097A105B10541F025E32A95DD
:104A2000F1F700000197A109B109E1CF8091E804F5
:104A30000C94140E7F928F929F92AF92BF92CF925E
:104A4000DF92EF92FF920F931F93CF93DF93EC01CE
:104A5000D901603609F0D7C08C91182F1F701C3017
:104A600008F0D1C0807F803309F4DFC15901042FE1
:104A7000813338F48031A1F1803209F4B8C181E08A
:104A8000C3C0803609F42FC2803709F43BC2803599
:104A9000B1F7612FCE010E94A50FEC01009779F3C9
:104AA000183008F01AC2E881F9810680F781E02DFC
:104AB0001995EA89FB8980818F7E8083EA89FB8949
:104AC0008081877F8083EA89FB8980818F778083DB
:104AD000EA89FB8980818F7D80838A8D898FCFCF02
:104AE000D9011296CC901297D12CF12CE12C87E0B1
:104AF000CC0CDD1CEE1CFF1C8A95D1F713968C9113
:104B000090E0B0E0A0E02EE0880F991FAA1FBB1F25
:104B10002A95D1F78C299D29AE29BF29F50121813C
:104B20006C017D01C22A812F90E0FC01EE0FFF1F76
:104B3000EC0FFD1FE15AFF4F11821082FC01EE0FB6
:104B4000FF1FEE0FFF1FEC0FFD1F13A214A215A2F3
:104B500016A28C0F9D1FFC01ED5AFF4F10821830DA
:104B600058F5612FCE010E94A50FEC01892B09F4A5
:104B700086CF11501330D0F4812F90E0FC01E35E1A
:104B8000FD4F1081865E9D4FDC010C91112371F069
:104B9000002361F06AE0812F0E94A9046AE0802F5F
:104BA0000E94A90460E0812F0E949808B701A60125
:104BB000CE010E94310563CF053008F1F501048173
:104BC00075801A3009F4E6C01B3009F4E8C01930CA
:104BD00049F55E01F9E7AF0EB11CD5018D919C91AD
:104BE000892BA9F58FE190E00E9413374C01472DE6
:104BF000602F0E94F42EF5019182808228C08DE4FE
:104C000097E00E94951880E0DF91CF911F910F915E
:104C1000FF90EF90DF90CF90BF90AF909F908F90DC
:104C20007F9008954E01F7E78F0E911CD4018D916E
:104C30009C91892B61F48FE190E00E9413375C0115
:104C4000472D602F0E94F42EF401B182A082612FC3
:104C5000CE010E94A50FEC01892B09F410CF6AE068
:104C6000802F0E94A9046AE0872D0E94A9041B8E50
:104C70001A8E198E188E1F8A1E8A60E079E08DE3E5
:104C800090E0A70196010E94E135B901C90103979F
:104C90002430310510F481E090E09D8F8C8F8C855D
:104CA00096EF980F943048F0EEECE80FE43028F0DF
:104CB000E2ECE80FE83008F069C0F901F695E795F5
:104CC000E431F10508F470C07397FF8BEE8B66300A
:104CD000710508F46CC0B90165507109798F688F4E
:104CE000B901660F771F260F371F36952795369522
:104CF00027952D30310508F45DC02C5031093B8FCC
:104D00002A8F943050F02EEC280F243030F022EC13
:104D1000280FF0E0E0E0283010F4E8E6F0E0208131
:104D2000943028F032EC380F383008F446C031E0C7
:104D3000232B943048F09EEC980F943028F08E533B
:104D4000F0E0E0E0883010F4E8E6F0E020832C8525
:104D500036EF320F343098F18EEC820F843078F1D8
:104D600082EC820F883070F58DE690E09C8B8B8B07
:104D7000343058F52650330B81E001C0880F2A9556
:104D8000EAF78D8B8C8D9D8D0197F1F7CE010E94F6
:104D9000990D75CE5E01FBE7AF0EB11C1ECF5E0113
:104DA000FDE7AF0EB11C19CFE1E0F0E08ECF61E07E
:104DB00070E094CF21E030E0A2CF34E0B9CF8BE6B1
:104DC00090E0D4CF90E080E0D1CF88E02233C9F2E8
:104DD00084E02333B1F282E0243399F282EC820F33
:104DE000883018F42E53330BC7CF81E0CACF612F20
:104DF000CE010E94A50F7C01892B09F440CEE5016C
:104E000011E0101708F03BCE6A8167956627679519
:104E10008981680FD701ED91FC910190F081E02D1F
:104E2000C70119951E5F2296ECCF11968C911197B0
:104E3000811126C03AA137300CF021CE812F90E0AD
:104E40000596880F991FFE01E80FF91F4330A8F05F
:104E500013968C91139720E8829FC001112412961B
:104E60002C91822B9183808381E0830F8AA3C80FCA
:104E7000D11D87FDDA951A8302CE11821082F4CFFC
:104E8000813009F0FCCD9AA119161CF08FEF8AA38E
:104E9000F6CD80E0492F092E000C550B282F30E06D
:104EA0004217530774F480E0E82FF0E04E175F07D5
:104EB0008CF0883020F4EC0FFD1F238122838F5F5C
:104EC000F3CF2C0F3D1FD90112962C91121761F3CD
:104ED0008F5FE4CF91509AA3D2CD0E94830DCE0173
:104EE0000E94AF37CCCD612FCE010E94A50F009755
:104EF00009F4C5CDDC01ED91FC910680F781E02D30
:104F00001995BDCD183008F4BACD612FCE010E949D
:104F1000A50F009709F03BCFB2CDCF92DF92EF9271
:104F2000FF920F931F93CF93DF937A016901C62FEE
:104F3000D0E08E01000F111F080F191FD8019E919C
:104F40008E918D010097E9F483E090E00E94133781
:104F5000209123042033D0F531E0320F3093230425
:104F6000FC01208330E0F901EE0FFF1FE20FF31F79
:104F7000E85DFB4F28EB3BE032832183F80191830E
:104F80008083DC01EC912E2F30E0F901EE0FFF1F42
:104F9000E20FF31FE85DFB4F208126FF02C02F7B4D
:104FA0002083F7FE06C020E639E040E252E0D7FC5D
:104FB00002C09601A701BE01DF91CF911F910F9111
:104FC000FF90EF90DF90CF900C94320A2FEFDC012E
:104FD0002C93D4CFCF92DF92EF92FF920F931F9337
:104FE000CF936037B1F54530A0F1F901C0814EEFA4
:104FF0004C0F403370F5EC2FF0E0E951F84F408151
:105000004F3739F1F9018C01E28020E8E29EC001BE
:105010001124E180E80EF92EF11CC48020E8C29E24
:10502000C0011124C380C80ED92ED11C64E08C2F7E
:105030000E94A9049601A7016C2FC8010E948D2728
:1050400081E0CF911F910F91FF90EF90DF90CF9073
:10505000089580E0F6CF2EEF260F203368F4443019
:10506000510541F42FEF3FEF4FEF5FEF0E948D2787
:1050700081E008950E94BB1E80E008958F929F9268
:10508000AF92BF92CF92DF92EF92FF920F931F9356
:10509000CF93DF93643741F4F901EC01423030F4EF
:1050A0008DEC95E00E94951880E00CC0E08083E0D4
:1050B000E81215C08D819E810E94AF371E821D822D
:1050C0001A8281E0DF91CF911F910F91FF90EF90B5
:1050D000DF90CF90BF90AF909F908F900895A1E008
:1050E000EA1631F0B2E0EB1205C056E1E52E02C03F
:1050F0006BE0E62EF1800F2D10E08A8181114FC008
:105100001C830B8381E08A8383E190E00E94133744
:105110006C01FC01F582E682F801E757F74FE49154
:10512000DC011796EC931797F801ED5BF74FE491CC
:105130001896EC9380E89EE3A0E0B0E0F601858746
:105140009687A787B08BDE82CD8262E08F2D0E948A
:1051500098080E944909605D774081099109D6014C
:1051600019966D937D938D939C931C9787E352962C
:105170008C930D811E81C8010E94D10B882351F0B0
:10518000F80186818B3030F08D3098F08551823077
:1051900008F446C060E070E080EC9FE725C08B819A
:1051A0009C818017910729F38D819E810E94AF37E2
:1051B000ABCF618170E090E080E00E94E8342DEC9C
:1051C0003CEC4CEC5DE30E9423354B015C01F801A3
:1051D000608170E090E080E00E94E8349B01AC01C7
:1051E000C501B4010E9423360E948F362AE0269F13
:1051F0008001279F100D11240D80DE81C02DCE016E
:105200000E94D10B882339F08E818C3009F484C040
:10521000B8F48B3061F160E070E080EC9FE74DC046
:105220006081718176276727762790E080E00E9471
:10523000E6342DEC3CEC4CEC5DE30E942335D4CFFE
:105240008551823040F7EA806E2D70E0762F662718
:1052500066277F778B81682B90E080E00E94E634A0
:105260002DEC3CEC4CEC5DE30E9423356FC06A8171
:1052700070E090E080E00E94E6344B015C01CB815D
:10528000C7FF0AC0AC019B0160E070E080E89FEBC3
:105290000E9422364B015C01CF706C2F70E090E0D1
:1052A00080E00E94E8342DEC3CEC4CEC5DE30E9485
:1052B0002335A50194010E94233620E030E040E22E
:1052C00051E40E9423350E948F364B010E94010554
:1052D00084E70E949C0480E00E949C048F2D0E9421
:1052E0009C04882D8F770E949C04C401880F892F0D
:1052F000881F990B8F770E949C04802F8F770E94C4
:105300009C04C801880F892F881F990B8F770E94F2
:105310009C040E94C104D5CEEA806E2D70E090E01E
:1053200080E00E94E6344B015C016B816F7070E09D
:1053300090E080E00E94E8342DEC3CEC4CEC5DE326
:105340000E942335A50194010E942336E7FEB5CFC4
:105350009058B3CF1F920F920FB60F9211240BB635
:105360000F922F933F934F935F936F937F938F93FE
:105370009F93AF93BF93EF93FF9381E195E00E94DA
:105380000B07FF91EF91BF91AF919F918F917F910B
:105390006F915F914F913F912F910F900BBE0F90A6
:1053A0000FBE0F901F9018951F920F920FB60F927D
:1053B00011240BB60F922F933F934F935F936F93EC
:1053C0007F938F939F93AF93BF93EF93FF9381E16D
:1053D00095E00E948D06FF91EF91BF91AF919F9153
:1053E0008F917F916F915F914F913F912F910F908E
:1053F0000BBE0F900FBE0F901F9018951F920F922B
:105400000FB60F9211240BB60F922F933F934F9329
:105410005F936F937F938F939F93AF93BF93EF931C
:10542000FF938EEA95E00E940B07FF91EF91BF91E9
:10543000AF919F918F917F916F915F914F913F912C
:105440002F910F900BBE0F900FBE0F901F901895CD
:105450001F920F920FB60F9211240BB60F922F933B
:105460003F934F935F936F937F938F939F93AF93EC
:10547000BF93EF93FF938EEA95E00E948D06FF9114
:10548000EF91BF91AF919F918F917F916F915F91BC
:105490004F913F912F910F900BBE0F900FBE0F9029
:1054A0001F9018951F920F920FB60F9211240BB6F2
:1054B0000F922F933F934F935F936F937F938F93AD
:1054C0009F93AF93BF93EF93FF938BE496E00E947B
:1054D0000B07FF91EF91BF91AF919F918F917F91BA
:1054E0006F915F914F913F912F910F900BBE0F9055
:1054F0000FBE0F901F9018951F920F920FB60F922C
:1055000011240BB60F922F933F934F935F936F939A
:105510007F938F939F93AF93BF93EF93FF938BE40E
:1055200096E00E948D06FF91EF91BF91AF919F9100
:105530008F917F916F915F914F913F912F910F903C
:105540000BBE0F900FBE0F901F9018951F920F92D9
:105550000FB60F9211240BB60F922F933F934F93D8
:105560005F936F937F938F939F93AF93BF93EF93CB
:10557000FF9388EE96E00E940B07FF91EF91BF9199
:10558000AF919F918F917F916F915F914F913F91DB
:105590002F910F900BBE0F900FBE0F901F9018957C
:1055A0001F920F920FB60F9211240BB60F922F93EA
:1055B0003F934F935F936F937F938F939F93AF939B
:1055C000BF93EF93FF9388EE96E00E948D06FF91C4
:1055D000EF91BF91AF919F918F917F916F915F916B
:1055E0004F913F912F910F900BBE0F900FBE0F90D8
:1055F0001F9018951F920F920FB60F9211242F93A0
:105600003F938F939F93AF93BF938091B9049091F1
:10561000BA04A091BB04B091BC043091B80423E05B
:10562000230F2D3758F50196A11DB11D2093B80405
:105630008093B9049093BA04A093BB04B093BC04C4
:105640008091BD049091BE04A091BF04B091C004AC
:105650000196A11DB11D8093BD049093BE04A0933B
:10566000BF04B093C004BF91AF919F918F913F91C0
:105670002F910F900FBE0F901F90189526E8230FC3
:105680000296A11DB11DD2CF1F920F920FB60F929D
:1056900011240BB60F922F933F934F935F936F9309
:1056A0007F938F939F93AF93BF93EF93FF93E0917B
:1056B0000E02F0910F021995FF91EF91BF91AF91FA
:1056C0009F918F917F916F915F914F913F912F911A
:1056D0000F900BBE0F900FBE0F901F9018951F924A
:1056E0000F920FB60F9211240BB60F922F933F9388
:1056F0004F935F936F937F938F939F93AF93BF93DA
:10570000EF93FF93E0910C02F0910D021995FF9138
:10571000EF91BF91AF919F918F917F916F915F9129
:105720004F913F912F910F900BBE0F900FBE0F9096
:105730001F9018951F920F920FB60F9211240BB65F
:105740000F922F933F934F935F936F937F938F931A
:105750009F93AF93BF93EF93FF93E0910202F09179
:1057600003021995FF91EF91BF91AF919F918F9196
:105770007F916F915F914F913F912F910F900BBE51
:105780000F900FBE0F901F9018951F920F920FB69B
:105790000F9211240BB60F922F933F934F935F9369
:1057A0006F937F938F939F93AF93BF93EF93FF93E9
:1057B000E0910002F09101021995FF91EF91BF91E4
:1057C000AF919F918F917F916F915F914F913F9199
:1057D0002F910F900BBE0F900FBE0F901F9018953A
:1057E0001F920F920FB60F9211240BB60F922F93A8
:1057F0003F934F935F936F937F938F939F93AF9359
:10580000BF93EF93FF93E0910A02F0910B02199579
:10581000FF91EF91BF91AF919F918F917F916F9188
:105820005F914F913F912F910F900BBE0F900FBE44
:105830000F901F9018951F920F920FB60F92112480
:105840000BB60F922F933F934F935F936F937F937A
:105850008F939F93AF93BF93EF93FF93E0910802D1
:10586000F09109021995FF91EF91BF91AF919F912E
:105870008F917F916F915F914F913F912F910F90F9
:105880000BBE0F900FBE0F901F9018951F920F9296
:105890000FB60F9211240BB60F922F933F934F9395
:1058A0005F936F937F938F939F93AF93BF93EF9388
:1058B000FF93E0910602F09107021995FF91EF9195
:1058C000BF91AF919F918F917F916F915F914F9118
:1058D0003F912F910F900BBE0F900FBE0F901F9016
:1058E00018951F920F920FB60F9211240BB60F92BC
:1058F0002F933F934F935F936F937F938F939F93D8
:10590000AF93BF93EF93FF93E0910402F0910502F0
:105910001995FF91EF91BF91AF919F918F917F91D9
:105920006F915F914F913F912F910F900BBE0F9010
:105930000FBE0F901F9018951F920F920FB60F92E7
:1059400011240BB60F922F933F934F935F936F9356
:105950007F938F939F93AF93BF93EF93FF9348E20F
:1059600051E064E271E090E080E00E94DD0AFF9186
:10597000EF91BF91AF919F918F917F916F915F91C7
:105980004F913F912F910F900BBE0F900FBE0F9034
:105990001F9018951F920F920FB60F9211240BB6FD
:1059A0000F922F933F934F935F936F937F938F93B8
:1059B0009F93AF93BF93EF93FF9348EA50E064EA5D
:1059C00070E083E090E00E94DD0AFF91EF91BF91CB
:1059D000AF919F918F917F916F915F914F913F9187
:1059E0002F910F900BBE0F900FBE0F901F90189528
:1059F0001F920F920FB60F9211240BB60F922F9396
:105A00003F934F935F936F937F938F939F93AF9346
:105A1000BF93EF93FF9348E950E064E970E082E0C0
:105A200090E00E94DD0AFF91EF91BF91AF919F91AD
:105A30008F917F916F915F914F913F912F910F9037
:105A40000BBE0F900FBE0F901F9018951F920F92D4
:105A50000FB60F9211240BB60F922F933F934F93D3
:105A60005F936F937F938F939F93AF93BF93EF93C6
:105A7000FF9348E850E064E870E081E090E00E9425
:105A8000DD0AFF91EF91BF91AF919F918F917F912F
:105A90006F915F914F913F912F910F900BBE0F909F
:105AA0000FBE0F901F9018951F920F920FB60F9276
:105AB00011240BB60F922F933F934F935F936F93E5
:105AC0007F938F939F93AF93BF93EF93FF93E09157
:105AD0002104F0912204309749F0A685B785858589
