:100000000C9460020C9456240C942F240C943925E3
:100010000C9439250C9439250C9488020C94880290
:100020000C9488020C9488020C9488020C947D2411
:100030000C9488020C9488020C9488020C94880218
:100040000C94E5230C9488020C94B3230C948D2318
:100050000C9488020C9488020C9488020C948802F8
:100060000C94B1250C9488024572726F7220696EEF
:10007000205350495F4441544120636F6D6D616E60
:10008000643A20656D707479206D6573736167657E
:10009000004572726F7220656E61626C696E6720D6
:1000A000535049206D6F6465005350492E62656757
:1000B000696E2829005350495F424547494E3A200E
:1000C0004F6E6C79206368616E6E656C20302073B2
:1000D0007570706F72746564004E65772053504977
:1000E0002064657669636520256420616C6C6F63AC
:1000F00061746564207769746820696E646578202E
:10010000256420616E642043532025642C20636C99
:100110006F636B20737065656420256420487A00E6
:100120005350495F4445564943455F434F4E464906
:10013000473A204F6E6C79206368616E6E656C2063
:100140003020737570706F727465643A200053507C
:10015000495F4445564943455F434F4E4649473AF8
:10016000204F6E6C7920382062697420776F72643A
:100170007320737570706F72746564005350495FBB
:100180004445564943455F434F4E4649473A204D03
:100190006178206E756D626572206F662064657689
:1001A00069636573206578636565646564004E6F97
:1001B0007420656E6F756768206461746120696E74
:1001C000205350495F4445564943455F434F4E468F
:1001D0004947206D65737361676500556E6B6E6F7F
:1001E000776E2053504920636F6D6D616E643A20C5
:1001F000005350495F5452414E534645523A2053A2
:10020000656E6420627566666572206E6F74206C20
:100210006172676520656E6F756768005350495F4E
:100220005452414E534645523A20556E6B6E6F778D
:100230006E206465766963654964207370656369DF
:10024000666965643A20004E6F7420656E6F75674D
:1002500068206461746120696E20535049206D6587
:10026000737361676500535049206E6F7420656E2B
:1002700061626C65642E005350492E656E642829B6
:10028000004572726F7220696E2044485420636F7B
:100290006D6D616E643A204E6F7420656E6F756788
:1002A0006820706172616D6574657273004E65657A
:1002B0006420612076616C696420696E7465727275
:1002C0007570742070696E2061732077616B65753D
:1002D000702070696E00536C656570206D6F646589
:1002E0002077696C6C206265206163746976617443
:1002F0006564206166746572202564206D73005505
:100300006E6B6E6F776E2070696E206D6F64650026
:10031000556E68616E646C656420737973657820CE
:10032000636F6D6D616E643A203078257820286C9B
:10033000656E3A20256429004E6F7420656E6F75D6
:10034000676820627974657320696E20535953542D
:10035000454D5F5641524941424C45206D6573738E
:100360006167650043616E6E6F74206368616E67DC
:10037000652070696E206E756D62657220776869A0
:100380006C652061637469766500496E76616C699D
:10039000642070696E206E756D62657220666F7282
:1003A000206672657175656E637920636F6D6D612E
:1003B0006E64004932433A20546F6F206D616E794C
:1003C000206279746573207265636569766564007F
:1003D000746F6F206D616E792071756572696573D8
:1003E0000031302D626974206164647265737369D1
:1003F0006E67206E6F7420737570706F72746564B1
:1004000000537065636966792073657269616C2059
:10041000525820616E642054582070696E73000039
:10042000000000240027002A00000000080002014C
:1004300000000304070000000000000000426F6F8E
:1004400074696E67206465766963652E20537461F4
:100450006E642062792E2E2E00446973636172648B
:10046000696E6720696E707574206D65737361675E
:10047000652C206F7574206F6620627566666572E4
:1004800000000000002300260029000000000025D5
:100490000028002B000404040404040404020202E3
:1004A00002020203030303030301020408102040B5
:1004B00080010204081020010204081020003527E2
:1004C00011241FBECFEFD8E0DEBFCDBF12E0A0E009
:1004D000B1E0E8EFF5E602C005900D92A036B10755
:1004E000D9F726E0A0E6B2E001C01D92A036B2071F
:1004F000E1F712E0C0E6D2E004C02197FE010E94BD
:100500002B2ECF35D107C9F70E94E3280C94FA327D
:100510000C940000282F30E02D5B3B4FF901E45B89
:10052000FF4F90819F3769F0205A3F4FD9011C92AD
:100530006083E091BF04F091C004309711F070E047
:1005400009940895A0914304B0914404ED91FC9165
:1005500011970190F081E02D682FCD010994CF9380
:10056000DF93C3E4D4E088819981DC01ED91FC91B3
:100570000190F081E02D67EF099588819981DC0178
:10058000ED91FC910680F781E02DDF91CF910994E8
:100590000F931F93CF93DF93EC0103E414E0D80192
:1005A0008D919C916C2F6F77DC01ED91FC91019006
:1005B000F081E02D0995F80180819181CC0FCD2F3C
:1005C000CC1FDD0B6C2F6F77DC01ED91FC9101905E
:1005D000F081E02DDF91CF911F910F9109948091CF
:1005E000430490914404DC01ED91FC910190F08171
:1005F000E02D60EF0994CF93DF93C3E4D4E08881CA
:100600009981DC01ED91FC910190F081E02D69EF81
:10061000099588819981DC01ED91FC910190F0812F
:10062000E02D62E0099588819981DC01ED91FC91D2
:100630000190F081E02D67E0DF91CF910994CF9296
:10064000DF92EF92FF92CF93DF93EC016A017B017F
:10065000E889F98982E08083C11481EED806E1043B
:10066000F104A1F060E079E08DE390E0A70196014C
:100670000E94462D2150310941095109569547954F
:1006800037952795211580E1380798F0E889F98991
:10069000108260E874E88EE190E0A70196010E9464
:1006A000462D2150310941095109569547953795F5
:1006B0002795EC85FD853083EE85FF852083188E98
:1006C000EC89FD8986E08083EA89FB8980818061ED
:1006D0008083EA89FB89808188608083EA89FB893D
:1006E000808180688083EA89FB8980818F7D808317
:1006F000DF91CF91FF90EF90DF90CF900895E09140
:100700002C05E53158F421E02E0F20932C05F0E064
:10071000EE0FFF1FEE5FFA4F91838083089581E013
:100720008093B7041092490410924A0410924B042B
:10073000ECE4F4E0119284E0EC38F807D9F7109279
:100740008C0410928E0410928D04E091C304F091F9
:10075000C404309709F009951092B70408950F93D7
:100760001F93CF93C82F8B01803198F4809143045D
:10077000909144046C2F606EDC01ED91FC9101902E
:10078000F081E02D0995C801CF911F910F910C9434
:10079000C8020E94EF028091430490914404DC015E
:1007A000ED91FC910190F081E02D6FE6099580912B
:1007B000430490914404DC01ED91FC910190F0819F
:1007C000E02D6C2F0995C8010E94C802CF911F919E
:1007D0000F910C94AF02CF93DF9300D01F92CDB74F
:1007E000DEB78F7080698983862F8F778A83660F43
:1007F000672F661F770B6B838091430490914404AD
:10080000DC01ED91FC910280F381E02D43E050E0AA
:10081000BE016F5F7F4F09950F900F900F90DF9192
:10082000CF910895CF92DF92EF92FF926B017C01FE
:10083000862F8F770E94A202D701C60127E0B695C6
:10084000A795979587952A95D1F78F770E94A20251
:10085000D701C6013EE0B695A795979587953A953D
:10086000D1F78F770E94A202D701C60145E1B69564
:10087000A795979587954A95D1F78F770E94A20201
:10088000D701C6015CE1B695A795979587955A95CE
:10089000D1F7FF90EF90DF90CF900C94A202AF922F
:1008A000BF92CF92DF92EF92FF920F931F93CF935D
:1008B000DF936C017B018B01040F151FEB015E01BF
:1008C000AE18BF08C017D10759F06991D601ED9154
:1008D000FC910190F081E02DC6010995892B79F7F3
:1008E000C501DF91CF911F910F91FF90EF90DF90A5
:1008F000CF90BF90AF900895FC01538D448D252F6C
:1009000030E0842F90E0821B930B541710F0CF96A9
:10091000089501970895FC01918D828D981761F0DB
:10092000A28DAE0FBF2FB11D5D968C91928D9F5FF2
:100930009F73928F90E008958FEF9FEF0895FC01D1
:10094000918D828D981731F0828DE80FF11D858D84
:1009500090E008958FEF9FEF0895FC01918D228D17
:10096000892F90E0805C9F4F821B91098F7399279C
:10097000089580E993E00E94AD0421E0892B09F4F9
:1009800020E0822F089580E090E0892B29F00E94DA
:10099000B90481110C9400000895FC01A48DA80FE6
:1009A000B92FB11DA35ABF4F2C91848D90E00196B1
:1009B0008F739927848FA689B7892C93A089B189D1
:1009C0008C91837080648C93938D848D981306C072
:1009D0000288F389E02D80818F7D80830895EF92D6
:1009E000FF920F931F93CF93DF93EC0181E0888FE9
:1009F0009B8D8C8D98131AC0E889F989808185FFB9
:100A000015C09FB7F894EE89FF896083E889F9895A
:100A100080818370806480839FBF81E090E0DF915C
:100A2000CF911F910F91FF90EF900895F62E0B8DAF
:100A300010E00F5F1F4F0F731127E02E8C8D8E116A
:100A40000CC00FB607FCFACFE889F989808185FFD1
:100A5000F5CFCE010E94CD04F1CFEB8DEC0FFD2F31
:100A6000F11DE35AFF4FF0829FB7F8940B8FEA898C
:100A7000FB8980818062CFCF0F931F93CF93DF9349
:100A80008C01D0E0C0E0F801EC0FFD1F64916623FB
:100A900041F080E993E00E94EF04892B11F0219648
:100AA000F2CFCE01DF91CF911F910F910895CF9397
:100AB000DF93EC01888D8823B9F0AA89BB89E88986
:100AC000F9898C9185FD03C0808186FD0DC00FB62C
:100AD00007FCF7CF8C9185FFF2CF808185FFEDCFAA
:100AE000CE010E94CD04E9CFDF91CF91089590E02F
:100AF000FC01E75DFB4F2491FC01E755FB4F34916E
:100B0000FC01EB56FB4FE491EE23C9F0222339F0B0
:100B1000233001F1A8F4213019F1223029F1F0E05D
:100B2000EE0FFF1FE557FB4FA591B4918FB7F894D7
:100B3000EC91611126C030953E233C938FBF089500
:100B40002730A9F02830C9F0243049F7809180007F
:100B50008F7D03C0809180008F7780938000DFCFEE
:100B600084B58F7784BDDBCF84B58F7DFBCF80913B
:100B7000B0008F778093B000D2CF8091B0008F7D8E
:100B8000F9CF3E2BDACFCF93DF9390E0FC01E7550E
:100B9000FB4F24918B569B4FFC0184918823C9F015
:100BA00090E0880F991FFC01E15EFB4FA591B49185
:100BB000FC01E557FB4FC591D49161110DC09FB762
:100BC000F8948C91209582238C9388812823288304
:100BD0009FBFDF91CF910895623051F49FB7F89491
:100BE0003C91822F809583238C93E8812E2BEFCF2D
:100BF0008FB7F894EC912E2B2C938FBFEACF8E30C9
:100C000008F08E508770806480937C0080917A0019
:100C1000806480937A0080917A0086FDFCCF809179
:100C200078009091790008953FB7F89480913C0343
:100C300090913D03A0913E03B0913F0326B5A89B40
:100C400005C02F3F19F00196A11DB11D3FBFBA2F5E
:100C5000A92F982F8827BC01CD01620F711D811D1E
:100C6000911D42E0660F771F881F991F4A95D1F7A3
:100C700008958F929F92AF92BF92CF92DF92EF92A0
:100C8000FF926B017C010E9414064B015C01C114B0
:100C9000D104E104F104B9F00E941406681979093D
:100CA0008A099B09683E73408105910580F321E024
:100CB000C21AD108E108F10888EE880E83E0981E78
:100CC000A11CB11CE4CFFF90EF90DF90CF90BF90BC
:100CD000AF909F908F9008952FB7F894609138034C
:100CE0007091390380913A0390913B032FBF08958F
:100CF0008F929F92AF92BF92CF92DF92EF92FF922C
:100D0000CF93C82F0E946C064B015C01F894C090F1
:100D10003904D0903A04E0903B04F0903C0478947D
:100D20000E94EF028DE70E94A20282E00E94A202CE
:100D30008C2F0E94A202C501B4010E941204C701B7
:100D4000B6010E941204CF91FF90EF90DF90CF90F8
:100D5000BF90AF909F908F900C94AF02823068F458
:100D6000E82FF0E0813051F0E898EE0FFF1FE050DF
:100D7000FF4F80EC96E0918380830895E998F5CF4A
:100D800008958230E8F4E82FF0E0EE0FFF1FE05006
:100D9000FF4F71836083813041F0809169008C7FC7
:100DA000482B40936900E89A089580916900837FF9
:100DB000440F551F440F551F482B40936900E99A73
:100DC0000895DF92EF92FF920F931F93CF93DF93DB
:100DD000EC01D62E7A01890188818C3008F067C039
:100DE00061E08D2D0E94C3058881282F30E0F90134
:100DF000EE0FFF1FE20FF31FED5EFC4F9D2D9F7363
:100E00006081607C692B608320E232E02E193F090B
:100E100037FF02C02D5F3F4F3595279535952795B4
:100E2000298320E639E0201B310B37FF02C02D5FFC
:100E30003F4F35952795359527952A832CE0622FCE
:100E40000E940B2E829FB001112430E020E0AB0104
:100E5000420F531FFA01EE0FFF1FE40FF51FED5E67
:100E6000FC4F908196FD16C02F5F3F4F2C3031050F
:100E700071F781110FC01092800082E08093810091
:100E80001092850010928400B19A80916F00826068
:100E900080936F00E8818E2F90E0FC01EE0FFF1F22
:100EA000E80FF91FED5EFC4F8081806480838881AC
:100EB000DF91CF911F910F91FF90EF90DF900895F8
:100EC000CF92DF92EF92FF92CF93DF93DC011796E0
:100ED000CC911797D0E06111DC2F18962C911897C0
:100EE00030E0220F331F2F573B4F50E040E0F90115
:100EF00085919491FC01F080BA0190E080E0EF2DA3
:100F0000EC23ED1310C04F5F5F4F1D96CD90DD9029
:100F1000ED90FC9050976C157D058E059F0538F37C
:100F20006FEF7FEFCB01DF91CF91FF90EF90DF90DC
:100F3000CF9008958F929F92AF92BF92CF92DF92FF
:100F4000EF92FF920F931F93CF93DF93CDB7DEB74E
:100F5000C054D1400FB6F894DEBF0FBECDBF8C0198
:100F60000E946C06F801C184D284E384F4849B015E
:100F7000AC012C193D094E095F0969017A0130ED78
:100F8000C31637E0D306E104F104A8F48189C05CFC
:100F9000DE4F0FB6F894DEBF0FBECDBFDF91CF910D
:100FA0001F910F91FF90EF90DF90CF90BF90AF9087
:100FB0009F908F90089561877287838794871482AA
:100FC000138212821182108262E085810E94C30521
:100FD00061E070E080E090E00E94390661E0F80195
:100FE00085810E94C30560E0F80185810E94770534
:100FF000F80186818551823028F58BE291E10197D5
:10100000F1F762E0F80185810E94C305F801828949
:1010100090E08230910538F0880F991F880F991F52
:1010200005970197F1F7F89460E0C8010E94600706
:101030006F3F7F4F8F4F9F4F61F4F801118A789473
:1010400080E0A5CF64E170E080E090E00E94390686
:10105000D8CF61E0C8010E9460076F3F7F4F8F4F7C
:101060009F4F59F39E012F5F3F4F79015E013FEB88
:10107000A31A3EEFB30A670160E0C8010E9460074F
:10108000F601608371838283938361E0C8010E94CB
:101090006007F6016483758386839783F8E0CF0E3B
:1010A000D11CCA14DB0441F7789430E020E0F7014A
:1010B00080809180A280B380448155816681778150
:1010C000FFEF8F169F06AF06BF0631F04F3F8FEF41
:1010D00058076807780719F4F801118AB1CFF901A8
:1010E00083E0F595E7958A95E1F7E00FF11F8081A0
:1010F000880F84169506A606B706F0F080832F5F4A
:101100003F4FF8E0EF0EF11C2832310581F6F8016F
:10111000448120818181280F3327331F8281280F4A
:10112000311D8381820F932F911D9927481719062E
:1011300099F681E0818B2BCF8160E0CF20910F0366
:10114000309110032817390771F490910E038091A4
:101150000D03981741F0E0910E03F0E0E353FD4FCB
:10116000808190E008958FEF9FEF08950895EF92AA
:10117000FF920F931F93CF93DF93DC015C96ED906A
:10118000FC905D97E114F10479F481E090E013960E
:101190009C938E93129790E080E0DF91CF911F9106
:1011A0000F91FF90EF9008955196ED91FC91529719
:1011B00050968C915097982F90950FB75E962C91E2
:1011C0005E97122F127021FD6095F89420811123F3
:1011D00019F1282B2083E7012197F1F728E0462F0A
:1011E00050E0308160FF1AC0382B3083E70121972F
:1011F000F1F7BA0175956795215089F7112381F0B0
:101200008081892380830FBF5C968D919C9101978B
:10121000F1F781E090E0C1CF2923DCCF3923E5CF7E
:101220009081892BEFCF20910F0330911003281765
:10123000390771F480910D0320910E0390E0805CDA
:101240009F4F821B910960E470E00E94172E089561
:1012500090E080E0089520910F033091100328174B
:101260003907B9F490910E0380910D03981789F016
:10127000E0910E03F0E0E353FD4F808120910E03D7
:1012800030E02F5F3F4F2F73332720930E0390E002
:1012900008958FEF9FEF0895E0910F03F0911003F1
:1012A000E817F90769F4A389B4899C918589809529
:1012B00089238C931092100310920F0381E00895FC
:1012C00080E00895CF93DF93EC018A8D9B8D892B6D
:1012D00001F180910F03909110038C179D07C9F0C5
:1012E000009711F00E944C098E8D8E7F8E8F109288
:1012F0000D0310920E03D0931003C0930F03EB89DC
:10130000FC8980819D89892B808381E0DF91CF9149
:10131000089580E0FBCF2091A802260F3327331FCA
:1013200021323105ECF420916603FC0190E080E06D
:10133000243069F082E00895A091A8022191AC01C7
:101340004A575D4FA40FB52FB11D2C9301968617F8
:1013500098F38091A802680F6093A80280E0089536
:1013600081E00895ECEBF0E080818A7B808360E08F
:1013700082E10E94770560E083E10C94770510928A
:10138000660381E0809365031092400361E082E18F
:101390000E94770561E083E10E947705E9EBF0E0C8
:1013A00080818E7F808380818D7F808388E480939D
:1013B000B80085E48093BC000895CF93DF9391E05B
:1013C00090938502882361F0C091B800D091BA0053
:1013D0000E94B2090E94BF09D093BA00C093B8001E
:1013E000DF91CF9108958F929F92AF92BF92CF924B
:1013F000DF92EF92FF920F931F93CF93DF93D091E1
:101400008F03D13208F0D7C0182FC0918E030E94ED
:1014100014066B017C018091660381116BC082E030
:1014200080936603109365038FEF8093640310929B
:101430006303D0936203AEE6B3E0E2E4F3E080E05E
:10144000D81391C01092410380914103CC0FC82B57
:10145000C093410380914003813009F088C010920D
:1014600040030E9414066B017C018091410380932C
:10147000BB008091680390916903A0916A03B091C9
:101480006B03892B8A2B8B2BA1F00E9414060091F1
:1014900068031091690320916A0330916B036C1902
:1014A0007D098E099F09061717072807390708F4D1
:1014B00042C08091BC0083FDD8CF85EC8093BC00F6
:1014C0000E9414066B017C0180916603823009F44E
:1014D00050C0809164038F3F09F46FC08091640312
:1014E000803209F46CC080916403803309F469C0D0
:1014F00084E026C08091680390916903A0916A03FB
:10150000B0916B03892B8A2B8B2B09F484CF0E941B
:1015100014068090680390906903A0906A03B090CD
:101520006B036C197D098E099F0986169706A8061C
:10153000B90608F070CF809167030E94DD0985E04D
:1015400010926D0310928F0310926C03DF91CF9174
:101550001F910F91FF90EF90DF90CF90BF90AF90D1
:101560009F908F9008959D9191938F5F69CF85EEA5
:10157000A5CF8091680390916903A0916A03B0910F
:101580006B03892B8A2B8B2B09F49ECF0E941406A8
:10159000009168031091690320916A0330916B03F5
:1015A0006C197D098E099F09061717072807390747
:1015B00008F08ACFC0CF81E0C3CF80E0C1CF82E006
:1015C000BFCF83E0BDCF08950895E091840280915C
:1015D0008302E81730F4F0E0ED59FD4F808190E090
:1015E00008958FEF9FEF0895909184028091830278
:1015F0002FEF3FEF981748F4E92FF0E0ED59FD4F3A
:10160000208130E09F5F90938402C901089580910A
:10161000830290918402891B990B0895CF92DF92E7
:10162000EF92FF920F931F93CF93DF937C01CB0137
:101630008A0120916C03222389F0EB016B01C40E17
:10164000D51ECC15DD0569F06991D701ED91FC91AE
:101650000190F081E02DC7010995F3CF642F0E941E
:101660008B09C801DF91CF911F910F91FF90EF90EF
:10167000DF90CF900895CF93DF931F92CDB7DEB761
:10168000698320916C032223F9F020918F0320328B
:1016900058F021E030E0FC013383228390E080E0C9
:1016A0000F90DF91CF91089580916D03E82FF0E0C6
:1016B000E259FC4F998190838F5F80936D038093F3
:1016C0008F0381E090E0ECCF61E0CE0101960E94B3
:1016D0008B09F7CF90E080E008950895693091F08C
:1016E00038F489589F4F683049F090E080E00895C1
:1016F0006A3059F083589F4F6B30B9F7FC018081F5
:101700009181089587589F4FF9CF85589F4FF6CF05
:101710002F923F924F925F926F927F928F929F9201
:10172000AF92BF92CF92DF92EF92FF920F931F93EF
:10173000CF93DF9300D000D0CDB7DEB7DC01929617
:101740002C9127FDFBC09C838B830E946C064B0170
:101750005C011A82BA818B2F90E0EB81FC8122A17F
:10176000022E000C330B281739070CF4E7C08E0F3C
:101770009F1FDC011296BC91B9836B2FCF010E9491
:101780006E0B7C01892B09F4C2C0E981E83040F07E
:1017900080910F0390911003E816F90609F0B7C085
:1017A000F981CF2ED12CF6013596EE0FFF1F2B813C
:1017B0003C81E20FF31F00811181D701ED91FC9173
:1017C0000084F185E02DC7010995181619060CF063
:1017D0009EC0EB81FC81EC0DFD1DED5AFF4FA081F9
:1017E0003601660C771CA11149C080EF0E94A2024D
:1017F00080E60E94A202898180640E94A2020115F3
:10180000110559F0D701ED91FC910084F185E02D8F
:10181000C7010995081719074CF0D701ED91FC9104
:101820000084F185E02DC70109958C01EB81FC81D5
:101830006E0E7F1EF301E15AFF4F80819181801B64
:10184000910B97FD74C091838083101611060CF0E4
:1018500071C0D701ED91FC910284F385E02DC701A1
:101860000995D82E8F770E94A2028D2D881F882778
:10187000881F0E94A20201501109E7CFEB81FC8171
:10188000E60DF71DE15AFF4F208131811216130634
:10189000F4F4F601EE0FFF1FEE0FFF1F4B815C818A
:1018A000E40FF51F23A034A045A056A0B501A40164
:1018B00042195309640975091A012B014A2F50E096
:1018C00070E060E0241635064606570650F501150F
:1018D000110509F58033910524F528173907BCF463
:1018E00020E0CC0CDD1CCC0CDD1CEB81FC81EC0D74
:1018F000FD1D83A294A2A5A2B6A2EB81FC81E60DF8
:10190000F71DE15AFF4F9183808321116ECFBA8179
:10191000BF5FBA831FCF10161106FCF68017910720
:10192000E4F2281739070CF060CF21E0DACF1182FA
:1019300010828BCF87EF0E94A202E9CF0F900F9009
:101940000F900F90DF91CF911F910F91FF90EF902B
:10195000DF90CF90BF90AF909F908F907F906F90CF
:101960005F904F903F902F900895089581E04A3006
:10197000510509F080E008950895FC01E65BFF4FF2
:101980002081222331F01082855B9F4F2FEFFC01D5
:10199000208308956251623030F486E00E94A202F2
:1019A00081E00C94A20208959C018EEE860F823095
:1019B000B0F446305105A9F0D901A65BBF4F8C9118
:1019C000882371F0E62FF0E0E157FB4F80818630ED
:1019D00031F41C92255B3F4F8FEFF901808380E04B
:1019E000089581E008950895CF93DF93EC018A81F3
:1019F0009B8197FD0CC08230910561F0039761F0E7
:101A00008FEF0E94AE068FEF9FEF9B838A83DF915B
:101A1000CF91089580E0F5CF81E0F3CF90E080E0B2
:101A2000623031F08FEF9FEF633011F481E090E08E
:101A30006250623140F4019631F080E10E94A202CE
:101A400080E00C94A2020895CF93DF9330E020E071
:101A5000623031F02FEF3FEF633011F421E030E0DE
:101A60007EEF760F7231A0F42F3F320789F04031BC
:101A7000510581F0FC01428153816417150641F440
:101A8000EC01822F0E94AE068FEF9FEF9B838A832B
:101A900080E001C081E0DF91CF910895CF92DF9285
:101AA000EF92FF92CF93DF93EC010E946C066B01E3
:101AB000770FEE08FF0888859985AA85BB85C8162B
:101AC000D906EA06FB066CF04C815D816E817F8150
:101AD000840F951FA61FB71F8C159D05AE05BF056A
:101AE0004CF48A819B8197FF0E947806C886D9862C
:101AF000EA86FB86DF91CF91FF90EF90DF90CF9049
:101B000008958091390490913A04A0913B04B091DA
:101B10003C040196A11DB11D8093390490933A04B1
:101B2000A0933B04B0933C040895CF93DF93EC0162
:101B30000E946C066E837F838887998783E190E09B
:101B40009B878A87DF91CF9108956A37C1F442302D
:101B5000B0F0F9014181F0E84F9FA0011124F90193
:101B60002081240F352F311D2115310529F0FC016D
:101B70003387228781E0089521E030E0F8CF80E0CC
:101B8000089580E008950895CF92DF92EF92FF923A
:101B9000F701D6012115310571F481E090E08D93B4
:101BA0009C93DA018D939C9311821082FF90EF90A9
:101BB000DF90CF9008952150310980E02230310527
:101BC000A8F780E490E08D939C9381E090E0E9CFCA
:101BD0000F931F93CF93DF938C01D62FC0E0D801D2
:101BE0009C968C91C81798F4EC2FF0E03196EE0F8C
:101BF000FF1FE00FF11F80819181DC01ED91FC91CD
:101C00000084F185E02D6D2F0995CF5FE8CFDF913E
:101C1000CF911F910F9108950F931F93CF938C0134
:101C2000C0E0D8019C968C91C81790F4EC2FF0E09E
:101C30003196EE0FFF1FE00FF11F80819181DC01D3
:101C4000ED91FC910680F781E02D0995CF5FE9CFFA
:101C5000CF911F910F910895CF93C0E082EF8C0F29
:101C600062E0863028F08EEF8C0F823120F461E044
:101C70008C2F0E948A02CF5FC43181F780E095E00B
:101C8000CF910C940C0EDF92EF92FF920F931F9363
:101C9000CF93DF93EC01D62E8A01F12CE12C8CA599
:101CA000F816A8F4EF2DF0E03196EE0FFF1FEC0FC1
:101CB000FD1F80819181DC01ED91FC910280F38117
:101CC000E02DA8016D2D0995E82AF394E8CF8E2D1B
:101CD000DF91CF911F910F91FF90EF90DF900895CA
:101CE00008956250623130F481E00E94A20281E0E6
:101CF0000C94A2020895CF938EEF860F8231B0F438
:101D00004130510599F4E62FF0E0E157FB4F808117
:101D10008F3761F0C62F60E08C2F0E94770561E05D
:101D20008C2F0E94C30581E0CF91089580E0FCCF05
:101D300080E008951F93CF93DF939EEF980F923129
:101D400080F4C82FD0E0CD5BDB4FFE01E45BFF4F9A
:101D50009081913031F4162F0E947705C05ADF4FE1
:101D60001883DF91CF911F910895AF92BF92CF92C8
:101D7000DF92EF92FF920F931F93CF93DF93833005
:101D800008F04BC091E0980F990F990F990FB92E59
:101D9000953110F024E1B22EC62FE82E9850092F6D
:101DA00010E0D0E0FF24F394802F0B1558F59EEF40
:101DB000900F9231C8F4A8014D5B5B4FFA01E45BD0
:101DC000FF4F2081223080F49F2D9C23AA24A394CE
:101DD000911101C0A12CBA01605A7F4F6B012130D3
:101DE00039F4DF29F601A082FF0C0F5F1F4FDCCF13
:101DF0009923C1F3FB0190819130A1F362E00E942D
:101E0000C305F0CFE11014C0F8948BB1682F6C2794
:101E10006C7F6D2368276BB97894DF91CF911F9108
:101E20000F91FF90EF90DF90CF90BF90AF9008950B
:101E3000F1E0EF121AC0CD23F89495B18D2F8F7376
:101E4000809589239C2F9F73892B85B988B16D2F2D
:101E5000629566956695637060956823C295C69590
:101E6000C695C370C62BC8B9D7CF6D2F6F70F894C5
:101E700098B1862F880F880F809589236C23660F71
:101E8000660F682B68B9C8CF0895FC0112821086CE
:101E90001582138211861682148212861782089583
:101EA0006250623160F480E00E94A20281E00E94F0
:101EB000A2028BE00E94A20281E00C94A20208958B
:101EC000CF932EEF260F223188F5E62FE695E69583
:101ED000E695E80FF92FF11D8085962F977021E088
:101EE00030E001C0220F9A95EAF74115510519F02B
:101EF0004B305105B9F4C62F282B2087452B31F4E0
:101F000060E08C2F0E94C30581E00AC062E08C2F44
:101F10000E94C305EC2FF0E0ED55FB4F81E080837C
:101F2000CF910895209528232087EECF80E0F8CF29
:101F30001F93CF93DF936623E1F1EC018A8188231D
:101F400069F019B11C7F888518238D81181731F02D
:101F5000612F70E080E00E94EB031D838B8188235A
:101F600099F0298513B186B11F7330E4839FC001B6
:101F70001124182B12238E81181731F0612F70E075
:101F800081E00E94EB031E838C81882391F086B14F
:101F900090E095958795959587958F701A8518236C
:101FA0008F81181731F0612F70E082E00E94EB03FF
:101FB0001F83DF91CF911F9108951F93CF93DF93DC
:101FC0008330B0F4C091CC04D091CD04C80FD11DA2
:101FD0006A83672B69F0488581110EC029B12C7F77
:101FE0002423142F1223612F70E00E94EB031D8322
:101FF000DF91CF911F910895813049F423B166B1EB
:102000002F7390E4699FB0011124262BE9CF96B17C
:10201000292F30E035952795359527952F70E0CFFE
:102020002F923F924F925F926F927F928F929F92E8
:10203000AF92BF92CF92DF92EF92FF920F931F93D6
:10204000CF93DF93CDB7DEB72A970FB6F894DEBFF4
:102050000FBECDBF662309F485C0DC0112962C911A
:102060001297222309F47EC09A878987FC01878012
:102070009084A184B28413962D913D914D915C91F1
:10208000169729833A834B835C830E946C062B014D
:102090003C01E985FA8587819085A185B28548163E
:1020A00059066A067B0638F149815A816B817C8129
:1020B0009A01AB0160E070E0CB0129833A834B8346
:1020C0005C836D837E838F8398879401A50160E094
:1020D00070E080E090E0A980BA80CB80DC80E12CC9
:1020E000F12C00E010E00E94312E12015101630139
:1020F0000E943A2EB8F583B7816083BFA985BA855F
:102100001B968C9110E0823021F01FEF833009F490
:1021100011E041E050E0E985FA858485811102C033
:1021200050E040E06BEC70E1812F0E94C10683B764
:10213000817F846083BF64E670E080E090E00E946D
:10214000390688956AE070E080E090E00E943906E8
:1021500083B78E7F83BF812F0E94AE06A985BA8583
:1021600012961C922A960FB6F894DEBF0FBECDBF12
:10217000DF91CF911F910F91FF90EF90DF90CF9063
:10218000BF90AF909F908F907F906F905F904F9097
:102190003F902F90089583B78E7F83BF0895CF938C
:1021A000DF93EC010E946C066F83788789879A879A
:1021B000DF91CF910895633039F08BEF860F823035
:1021C00018F06950633030F483E00E94A20288E086
:1021D0000C94A2020895FF920F931F93CF93DF9365
:1021E000F9016F3609F077C0423008F474C0F0800E
:1021F000C181D0E0423091F0828120E8829FC0010D
:102200001124C82BD92B433049F0838190E090E40E
:10221000899F902D88271124C82BD92B0F2D10E0D2
:10222000F801E157FB4F80818250823098F561E0E0
:102230008F2D0E94C305209729F460E08F2D0E9406
:10224000770528C0CF3FD10511F461E0F7CFF80141
:10225000E75DFB4FE491E33021F140F4E130B1F070
:10226000E230D1F0C038D10584F7E7CFE73019F17B
:10227000E83049F1E430B1F78091800080628093CA
:102280008000D0938B00C0938A0004C084B580681E
:1022900084BDC7BD81E020C084B5806284BDC8BD57
:1022A000F9CF80918000806880938000D09389006E
:1022B000C0938800EFCF8091B00080688093B00019
:1022C000C093B300E7CF8091B00080628093B000EC
:1022D000C093B400DFCF80E0DF91CF911F910F91C9
:1022E000FF9008950895EF92FF920F931F93CF935D
:1022F000662319F17C01C2EF10E000E0C630C0F4A3
:10230000F801E157FB4F8081823091F4F70182811F
:1023100093810C2E02C0959587950A94E2F780FF71
:1023200007C0802F0E94FF05BC018C2F0E94AF03C5
:102330000F5F1F4FCF5FC63009F7CF911F910F91ED
:10234000FF90EF900895FC011382128208956E5061
:10235000663030F482E00E94A2028AE00C94A2026D
:102360000895CF93DC016630B0F412968D919C9164
:102370001397E1E0F0E0062E02C0EE0FFF1F0A9473
:10238000E2F741110AC0E095F095E823F92313968E
:10239000FC93EE931297CF910895E82BF92B1396A7
:1023A000FC93EE9312978091B7048111F4CF822FA2
:1023B000C62F0E94FF05BC018C2FCF910C94AF0358
:1023C000CF93DF93FC016936B9F480EF0E94A2023B
:1023D0008AE60E94A202C2EF8C2FC63008F08FE777
:1023E0000E94A202CF5FC630B9F787EF0E94A20217
:1023F00081E0DF91CF910895643601F54230F0F02D
:10240000D9016C91A62FB0E050E040E0942FEA0192
:102410002E97AC17BD0731F04F5F5F4F4431510528
:10242000A9F790E041E0D90111968C91813009F033
:1024300040E0292FCF010E94B111DACF80E0D9CF3F
:10244000CF93C62F62EF6C0F663088F42C2F42308A
:10245000510551F441E00E94B11160E08C2F0E94BF
:10246000C30581E0CF91089540E00E94B11180E062
:10247000F9CFCF93DF93E0913F04F0914004A82F70
:10248000B0E050E040E0242FEA012E97AC17BD07E2
:1024900031F04F5F5F4F44315105A9F720E041E033
:1024A0006130710509F040E0682FCF01DF91CF91D5
:1024B0000C94B111089508950895089508956250F7
:1024C0006C3030F484E00E94A2028EE00C94A202F0
:1024D00008956250623130F48FE00E94A20280E4DD
:1024E0000C94A20208956A50643030F48CE00E948B
:1024F000A20281E00C94A202089580E0089508955C
:1025000080E0089580E008950895FC010190002086
:10251000E9F73197AF01481B590BBC0180E993E003
:102520000C944F040F931F93CF93DF930E94EF02FD
:102530008091430490914404DC01ED91FC91019061
:10254000F081E02D69E7099580914304909144045E
:10255000DC01ED91FC910190F081E02D6091470448
:1025600009958091430490914404DC01ED91FC9124
:102570000190F081E02D609148040995A0914504F7
:10258000B0914604ED0109900020E9F72197CA1B9C
:10259000DB0B10E000E0C017D10779F0E0914504B3
:1025A000F0914604E00FF11F8081082E000C990B7A
:1025B0000E94C8020F5F1F4FEECFDF91CF911F9196
:1025C0000F910C94AF02EF92FF920F931F93CF9352
:1025D000DF938C010E94BA2B7C018091B804811199
:1025E00007C0C8010E943C0588E492E00E94851261
:1025F0000E94EF028091430490914404DC01ED912C
:10260000FC910190F081E02D61E70995D0E0C0E0F8
:10261000CE15DF054CF4F801EC0FFD1F849190E01E
:102620000E94C8022196F4CFDF91CF911F910F91A4
:10263000FF90EF900C94AF028F929F92AF92BF9257
:10264000EF92FF920F931F93CF93DF936D3709F0B3
:102650004BC0423060F481E0DF91CF911F910F9128
:10266000FF90EF90BF90AF909F908F900895E901F9
:10267000F42E8C018881811118C02981F801828192
:1026800093812817190621F097FD0FC02F3769F4A1
:1026900082309105E1F00397E1F481E00E94AE06FB
:1026A0008FEF9FEFF80193838283F4E0FF1598F694
:1026B0008881E98022E0E216C9F093E0E916B1F0E2
:1026C000813049F68AE893E00E94E312C4CF80E0AB
:1026D000E5CF8FEFE3CF8FEF43C08C179D0709F451
:1026E0004EC084E693E0F0CF80E0B6CF813009F0B1
:1026F000B2CFFA808C81E0E88E9FC00111242B813B
:10270000822B4C01092E000CAA08BB08892B59F01A
:102710000E946C06F80160877187828793878482A4
:102720009582A682B782F80182819381CE2DD0E076
:102730008F3F980791F6EEEFEF0D50E040E0E43068
:1027400038F4F0E0E65FFE4F4081042E000C550B9C
:1027500022E080E0E21621F083E0E812BCCF81E0C5
:1027600061E87DE00E94C106F801D383C28360E086
:102770008E2D0E94C30560E18E2D0E948A02CE013B
:102780000E94780668CF2F923F924F925F926F928D
:102790007F928F929F92AF92BF92CF92DF92EF92F1
:1027A000FF920F931F93CF93DF9300D000D000D000
:1027B000CDB7DEB75C01062F942E79016B3609F494
:1027C00057C06D3671F010E0663609F03BC1EAE0A3
:1027D000E41708F47CC088E393E00E94E31280E0F1
:1027E0002EC04423E1F3D9010C910431C0F780EFEE
:1027F0000E94A2028EE60E94A202802F0E94A202E4
:1028000010E00D5B1B4FF801E45BFF4F80810E94DD
:10281000A202F801E05AFF4F1081812F8F770E94AA
:10282000A202812F90E017FF06C0880F892F881F12
:10283000990B0E94A20287EF0E94A20281E02696D5
:102840000FB6F894DEBF0FBECDBFDF91CF911F91C1
:102850000F91FF90EF90DF90CF90BF90AF909F903F
:102860008F907F906F905F904F903F902F90089542
:1028700080EF0E94A2028CE60E94A2020FE814E000
:10288000F12CF80181918F018F37C9F0E12CD5012E
:102890009C968C91E81698F4EE2DF0E03196EE0FB0
:1028A000FF1FEA0DFB1D80819181DC01ED91FC9100
:1028B0000190F081E02D6F2D0995E394E8CF8FE72B
:1028C0000E94A202F394B4E1FB12DBCFB4CF11E07B
:1028D000D9018C91811101C010E0F701818190E054
:1028E0009E838D8384E090E09C838B8383814480EE
:1028F000512C712C612C47E0440C551C661C771C34
:102900004A95D1F7482A420135802681878190E097
:10291000B0E0A0E057E0880F991FAA1FBB1F5A958F
:10292000D1F7408550E070E060E0AEE0440F551F05
:10293000661F771FAA95D1F7842B952B822B418593
:1029400050E070E060E0B5E1440F551F661F771F4F
:10295000BA95D1F7482B592B9285892F90E0B0E09A
:10296000A0E00CE1880F991FAA1FBB1F0A95D1F7A1
:10297000842B952B9A838983D501ED91FC91068454
:10298000F785E02D9E012F5F3F4F6901CE01039631
:102990007C01032D9201AE014B5F5F4F612FC5019A
:1029A0000995811127C0212CD5019C968C91281660
:1029B00008F5E22DF0E03196EE0FFF1FEA0DFB1D4A
:1029C00080819181DC01ED91FC910684F785E02DF9
:1029D0009E012F5F3F4F6901DE0113967D01032D9C
:1029E0009401AE014B5F5F4F612F0995811102C0C9
:1029F0002394DACF80EF0E94A20286E60E94A20210
:102A0000812F0E94A2028D810E94A2028B810E94CE
:102A1000A202842D8F770E94A202C201880F892F03
:102A2000881F990B91958F770E94A202832D0E9497
:102A3000A20269817A81072E000C880B990B0E94F3
:102A40001204F9CEF50184A5181708F0C8CEE12FBD
:102A5000F0E03196EE0FFF1FEA0DFB1D80819181A2
:102A6000DC01ED91FC910480F581E02D9701492D69
:102A7000602F09958111E3CE1F5FE4CFCF93DF93E1
:102A8000EB01A0913D04B0913E04ED91FC911197B2
:102A90000280F381E02DAB01682FCD0109958111F2
:102AA00009C0CF37D10531F08FEF92E0DF91CF91A0
:102AB0000C94E312DF91CF910895FC0112AE9FB701
:102AC000F89480916202882319F081508093620209
:102AD00080916202811105C08CB58F7B8CBD1092F4
:102AE00061029FBF87E792E00C94E312FC0122ADE4
:102AF00021110C945D150895DC0186EF860F84305A
:102B000090F44C30510589F0DA968C91DA9788234D
:102B100059F0E62FF0E0E157FB4F80818C3019F43B
:102B2000CD010E945D1580E0089581E008954F92E7
:102B30005F926F927F928F929F92AF92BF92CF924D
:102B4000DF92EF920F931F93CF93DF936C01D62FF9
:102B50005A01122F4F3F540709F492C081E080932D
:102B60006C0360938E0310926D0310928F03642F99
:102B70008DE294E00E943B0B802F0E94F309F60146
:102B8000E45BFF4F808191818230910538F0880F9E
:102B9000991F880F991F05970197F1F70E94140656
:102BA0002B013C018091660381116CC0C12F113251
:102BB00008F0C0E281E080936603809365039FEF95
:102BC00090936403109263039C0F9093620380932D
:102BD0004103909141038D2F880F892B80934103EE
:102BE00080914003813009F0A1C0109240030E94FF
:102BF00014062B013C01809141038093BB0080911E
:102C0000680390916903A0916A03B0916B03892BCB
:102C10008A2B8B2BA1F00E9414062091680330911F
:102C2000690340916A0350916B0364197509860921
:102C30009709261737074807590708F444C08091B9
:102C4000BC0083FDD8CF85EC8093BC000E941406A5
:102C50002B013C0180916603813009F469C08091A9
:102C600063038C1710F4C0916303A2E4B3E0E3E6BE
:102C7000F2E080E08C1761F19D9191938F5FFACF24
:102C8000A12C8CCF8091680390916903A0916A0375
:102C9000B0916B03892B8A2B8B2B09F483CF0E9475
:102CA0001406209168033091690340916A035091A2
:102CB0006B036419750986099709261737074807B2
:102CC000590708F06FCF809167030E94DD09C0E0CB
:102CD00010928402C0938302212F30E08C2F90E069
:102CE000281739070CF046C083EB93E00E94E312EB
:102CF000F601A2A63601FBE26F0E711C912C812C0D
:102D0000A12EB12C8A149B04DCF590918302809152
:102D100084029817A9F18DE294E00E94F40A9FEFD3
:102D2000891A990AF30181933F01ECCF85EE8CCF8C
:102D30008091680390916903A0916A03B0916B033D
:102D4000892B8A2B8B2B09F485CF0E9414062091A6
:102D500068033091690340916A0350916B036419D1
:102D6000750986099709261737074807590708F094
:102D700071CFA9CF821793070CF0BACF1C2FB8CF11
:102D80000E94EF0287E70E94A2028D2F0E94A202FA
:102D90008E2D0E94A202E601AA96D12CC12C899107
:102DA00090E00E94C802FFEFCF1ADF0AAC14BD0406
:102DB000B4F7DF91CF911F910F91EF90DF90CF90FB
:102DC000BF90AF909F908F907F906F905F904F904B
:102DD0000C94AF02CF92DF92EF92FF920F931F936A
:102DE000CF93DF936C012BE4C20ED11CF60120813E
:102DF00027FD28C0EC0110E085E0F82E812F90E03F
:102E0000F6012081022E000C330B28173907D4F06D
:102E1000F89EF001F99EF00D1124EC0FFD1F0196B4
:102E2000F89ED001F99EB00D1124AC0FBD1F438157
:102E30005481E12C06812C916281CE010E9497156C
:102E40001F5FDCCFDF91CF911F910F91FF90EF902B
:102E5000DF90CF900895CF92DF92EF92FF920F9381
:102E60001F93CF93DF93E42EE901663729F068378B
:102E700009F4FBC010E01CC0FC01E65BFF4F1081B1
:102E80001123B1F0398135FF05C081EE93E00E9436
:102E9000E3120EC0688141E036FB002700F90427E9
:102EA000232F2871283009F43EC060F42223C9F092
:102EB000812FDF91CF911F910F91FF90EF90DF90C5
:102EC000CF900895203109F44BC0283189F7EC01E7
:102ED000C55BDF4F388113160CF481C08FEF8883F8
:102EE000E7CF40936C0360938E0310926D031092B2
:102EF0008F0302E00E1578F4FE01E00FF11D6181F1
:102F00006795662767958081680F8DE294E00E943F
:102F10003B0B0E5FEFCF81E00E94F30983E191E06C
:102F20000197F1F7C5CF7A812B8146E0E41211C0F9
:102F3000A0E82A9FA0011124470F511D2D8127953C
:102F4000222727957C81270F3770E32E0E94971543
:102F5000AFCF279522272795270F4FEF5FEFF4CFAD
:102F6000FC01E55BFF4F408147301CF080ED93E0B2
:102F70008ECFAA813B81B6E0EB122AC050E8359F84
:102F800090011124A20FB32FB11D3D813795332736
:102F900037952C81320F4F5F4083042E000C550B68
:102FA00025E0249FF001259FF00D1124E80FF91F63
:102FB0006283B483A3834F5F5F4F249FB001259F3B
:102FC000700D1124860F971FDC013C93068370CF90
:102FD0003795332737953A0FAFEFBFEFDCCF20E0BF
:102FE000E32E032E000CFF0875E0422F50E0E4169C
:102FF000F50664F0749FF001759FF00D1124E80F41
:10300000F91F4281641719F02F5FEFCF20E045E0F0
:10301000622F70E0E616F7062CF1283008F5FB0168
:1030200031964E9FD0014F9FB00D1124A80FB91FAC
:1030300012965C911297469FF001479FF00D112464
:103040006F01C80ED91EF601528313966D917C91C3
:103050001497748363835285558316965C915683C7
:103060002F5FD6CF3150388323CF2981B0E82B9FF3
:10307000A00111242881240F352F311D2115310580
:1030800029F0FC01E45BFF4F318320838C01065B58
:103090001F4FF8018081811133C0D0E0C0E08C2F38
:1030A0008251823070F4FE01E157FB4F80818F37EF
:1030B00039F166E08C2F0E948A0266E08C2F0E9414
:1030C000C3052196C431D10551F781E0D8018C9315
:1030D0000E94B209109284021092830210926D0332
:1030E00010928F030E94BF0983EE9AE09093A7028B
:1030F0008093A60284EE9AE09093AB028093AA029A
:10310000F8011081D5CECF9343305105D1F463300F
:1031100041F08BEF860F823020F087EF860F8330EF
:1031200080F4C62F61E08C2F0E94C30561E08C2FD4
:103130000E94C30560E08C2F0E94770581E0CF914B
:10314000089580E0FCCF0C94F32E1F93CF93DF9370
:10315000EC0118E0612FCE010E946E0B009711F078
:103160000E94F32E1F5F1C30A9F78FEF8AA3FE0188
:103170003A96CE018396DE01AD5ABF4FAE014E5D49
:103180005F4F11921192EC011992199219921992B2
:10319000CE011D929F012D5A3F4FE90119821882DD
:1031A000E417F50771F7DF91CF911F9108950C9403
:1031B000F32E0C94F32E0C94F32E0C94F32E0C940B
:1031C000F32E0C94F32E0C94F32E0C94F32E0C94FB
:1031D000F32E0C94F32E0C94F32E0C94F32ECF9329
:1031E000DF93C62FD0E0CC0FDD1FC80FD91FBA91D7
:1031F000AA911097A1F0EC912E2F30E0F901EE0F7B
:10320000FF1FE20FF31FED5EFC4F908196FF02C09F
:103210009F7B9083CD010E94F32E19821882DF914B
:10322000CF9108950F931F93CF938C01C0E08EEF41
:103230008C0F8C3020F46C2FC8010E94EF18CF5FE8
:10324000C431A9F7CF911F910F910895CF93DF93C8
:10325000FC012281222341F0EC01858196810E94AC
:10326000F32E1E821D821A82DF91CF910895CF9393
:10327000DF93EC016250623170F481E04F30510510
:1032800059F08A81882341F08D819E810E94F32E1E
:103290001E821D821A8280E0DF91CF9108954F92A5
:1032A0005F926F927F928F929F92AF92BF92CF92D6
:1032B000DF92EF92FF920F931F93CF93DF93CDB7DF
:1032C000DEB7A1970FB6F894DEBF0FBECDBF7C016D
:1032D0005A016B010E94BA2B4C018091B8048111F4
:1032E00026C0C7010E943C0519A29501A6018E01C6
:1032F0000F5D1F4F8AE0482E512C612C712CCA01A2
:10330000B901A30192010E94462D605DD8016E9320
:103310008D01211531054105510589F7109719F0E7
:10332000CD010E94851288E492E00E9485120E94DD
:10333000EF028091430490914404DC01ED91FC91F3
:103340000190F081E02D61E7099510E000E008159B
:10335000190554F4F701E00FF11F849190E00E94E9
:10336000C8020F5F1F4FF3CF20E1FE0131964F01DE
:10337000AF01B501C6010E94C32BF40101900020EA
:10338000E9F731977F01E818F908B7016F5F7F4FC0
:1033900090E080E00E947C2F8C010097C9F0DC0156
:1033A0001C92B4010E944930D12CC12CCE14DF04F0
:1033B00091F080E00115110521F0F801EC0DFD1DE3
:1033C000808190E00E94C802BFEFCB1ADB0AEECFEB
:1033D000F12CE12CE9CF0E94AF0201151105C9F0D3
:1033E000C801A1960FB6F894DEBF0FBECDBFDF9126
:1033F000CF911F910F91FF90EF90DF90CF90BF90F2
:10340000AF909F908F907F906F905F904F900C94B3
:10341000F32EA1960FB6F894DEBF0FBECDBFDF919D
:10342000CF911F910F91FF90EF90DF90CF90BF90C1
:10343000AF909F908F907F906F905F904F90089586
:103440002F923F924F925F926F927F928F929F92B4
:10345000AF92BF92CF92DF92EF92FF920F931F93A2
:10346000CF93DF93CDB7DEB7C754D1090FB6F89429
:10347000DEBF0FBECDBF4C016A01DC01DA968C9134
:1034800081111EC086E692E00E94E312C95BDF4F05
:103490000FB6F894DEBF0FBECDBFDF91CF911F9165
:1034A0000F91FF90EF90DF90CF90BF90AF909F90E3
:1034B0008F907F906F905F904F903F902F900895E6
:1034C0002223D9F06430D8F0F6014081F401B12C08
:1034D000A12C8281481709F427C13FEFA31AB30A30
:1034E000379688E0A816B104A1F750E070E060E0DC
:1034F0008CE192E00E944F19C9CF663028F787E42B
:1035000092E0C2CF87E08A9DF0018B9DF00D1124DF
:10351000E80DF91D9581911116C0F6019E012F5FEE
:103520003F4FD90194E07D01E21AF30A32969617D3
:1035300008F008C183818795882787954281840F89
:103540008D939E5FF0CF6450770B869F7001879FAD
:10355000F00C112463E0F594E7946A95E1F7B1E487
:10356000EB16F1041CF081EF91E08ECF1601E4E040
:103570002E0E311C9E012F5F3F4F2901F90130E0D3
:1035800020E057E0652E712CCF01841995098E1526
:103590009F050CF0D7C0C901B3010E94172ED101BD
:1035A000A60FB71F11966C911197A301481B590BD9
:1035B00001C0660F4A95EAF74C9150E002C055955C
:1035C00047958A95E2F7642B6193285F3F4FDCCFE4
:1035D0008093600211C1F7013197E80FF91F0DB414
:1035E00007FEFDCF8EB5808380916102882359F05C
:1035F0009FB7F8942091610280916002213009F018
:103600005BC08DBB9FBFF6018281882361F087E09C
:103610008A9DF0018B9DF00D1124E80DF91D61E0EC
:1036200084810E9477050130110509F02FCF0E9497
:10363000EF0288E60E94A20285E00E94A202D60163
:103640008C910E94A202F60181810E94A2028E2D1D
:103650000E94A20227E02A9DC0012B9D900D1124FB
:10366000880E991ED40115968C91FE0131965F014A
:103670008F01882309F44BC04F0110E000E0512C6A
:1036800048E0642E712CC4018A199B098E159F0590
:10369000B4F5D4018D914D01C82ED12C0115110521
:1036A00069F48F770E94A202CC0CCD2CCC1CDD08D3
:1036B0005C2C01E010E0E7CF8FBFA5CFC601002E44
:1036C00001C0880F0A94EAF78F7785290E94A20229
:1036D0000630110541F4C601959587950E94A20216
:1036E00010E000E0D0CF0F5F1F4FC301801B910B94
:1036F00002C0D594C7948A95E2F75C2CC4CF012B05
:1037000019F0852D0E94A2020E94AF02BFCEC8010F
:103710008A199B098E159F05BCF7F80181918F01CD
:1037200090E00E94C802F3CF222309F4EBCED60129
:103730001396EC90F12CA70170E060E0CE010196A9
:103740000E9442300230110569F580EF22968FAF5A
:10375000229788E623968FAF239785E024968FAF34
:103760002497D6018C9125968FAF259711968C9131
:1037700026968FAF269727961FAE279787EF289616
:103780008FAF28978091430490914404DC01ED9120
:10379000FC910280F381E02D47E050E0BE016F5BB9
:1037A0007F4F099587E08A9DF0018B9DF00D1124D4
:1037B000E80DF91D84818F3F19F060E00E947705C4
:1037C00087E08A9DF0018B9DF00D11243696E80D5F
:1037D000F91D2081918180916102882369F08FB762
:1037E000F89430916102313009F0F2CE3DB330935C
:1037F00060023DB33DBB8FBF2CBD9DBDE114F10404
:1038000009F4F2CE89818EBDFE0131969701CF0178
:103810002150310909F4DFCE51810DB407FEFDCFEF
:103820004EB55EBD4193F4CFCF92DF92EF92FF92FF
:103830000F931F93CF93DF93CDB7DEB7C054D10959
:103840000FB6F894DEBF0FBECDBF2F96EEACFFAC27
:103850002F97C7010E94BA2B8C0180970CF056C09D
:103860000E94EF028091430490914404DC01ED91A9
:10387000FC910190F081E02D61E70995DE019196C0
:1038800090E080E0AD01801791073CF4F701E80F6C
:10389000F91FE491ED930196F6CFFA01E00FF11FC5
:1038A00010828E010F5F1F4F80E2F80111928A95FE
:1038B000E9F79E01215B3F4F60E270E0C8010E9482
:1038C00050308091B804811107C0C8010E94851250
:1038D00088E492E00E948512F80101900020E9F747
:1038E00031977F01E01AF10A6801C601801B910B34
:1038F0008E159F054CF4D6018D916D01082E000C9C
:10390000990B0E94C802F1CF0E94AF02C05CDF4F4A
:103910000FB6F894DEBF0FBECDBFDF91CF911F91E0
:103920000F91FF90EF90DF90CF900895CF93DF93AA
:10393000C82FD62F9A0180913D0490913E04DC015E
:10394000ED91FC910480F581E02D462F6C2F0995B7
:10395000811116C01F92DF931F92CF9380E193E0F5
:103960009F938F9383E494E09F938F930E94141C02
:103970008DB79EB708960FB6F8949EBF0FBE8DBF49
:10398000DF91CF910895CF92DF92EF92FF920F9344
:10399000CF93DF93EC01862FF6012636310509F02F
:1039A00043C02081318181E02115310509F480E097
:1039B0008A8348EE53E0249FC001259F900D349FD9
:1039C000900D1124092E000CAA0BBB0B8B839C833A
:1039D000AD83BE83232BE1F0BF93AF939F938F936F
:1039E00086ED92E09F938F9383E494E09F938F936F
:1039F0000E94141C0E946C066F83788789879A87BF
:103A00008DB79EB708960FB6F8949EBF0FBE8DBFB8
:103A1000D7011D921C9281E0DF91CF910F91FF9011
:103A2000EF90DF90CF90089527363105F9F49EEF9F
:103A3000900F923050F085E090E0F7019183808301
:103A40008DEA92E00E94E312E6CF662339F00B87FD
:103A500090819C87D7011D921C92DECF82E090E07E
:103A6000D7018D939C9311821082D5CF80E0D4CF63
:103A70009F92AF92BF92CF92DF92EF92FF920F93FD
:103A80001F93CF93DF93683649F4D901F42EEC01EC
:103A9000411106C088E690E00E94E31280E025C054
:103AA000A9014F5F5F4FFA948C91883008F0B2C142
:103AB000E82FF0E0E25AF24E0C942B2E661DE01D2A
:103AC000071F001FF81E0A1FF41E041F8AAD811174
:103AD0000CC081E0F81204C011968C91882389F003
:103AE00085EB90E00E94E31281E0DF91CF911F917E
:103AF0000F91FF90EF90DF90CF90BF90AF909F908D
:103B0000089580919B048F3781F16CE08CE00E94D6
:103B10008A0260E08CE00E94C30580919A048F378E
:103B200021F16CE08BE00E948A0261E08BE00E9450
:103B3000C30580919C048F37C1F06CE08DE00E943A
:103B40008A0261E08DE00E94C305FAAECFB7F89417
:103B500080916202882361F0809162028F5F80937E
:103B60006202CFBF89EA90E0BDCF81E990E0BACF91
:103B7000EFE9F4E08491E3EBF4E09491E82FF0E0D6
:103B8000EE0FFF1FE15EFB4FA591B491EC91E9238D
:103B900021F461E08AE00E94770561E08AE00E94FA
:103BA000C3058CB580618CBD8CB580648CBD61E033
:103BB0008DE00E94C30561E08BE00E94C305CCCF7D
:103BC00099E09F1518F08EEA91E08CCF11969C90A9
:103BD0001197BE019E010FEF1FEF90E080E0F90109
:103BE0004281491101C08C010196295F3F4F883005
:103BF0009105A9F70F3F100799F490E080E0FB01D1
:103C00002085211101C08C010196695F7F4F8830AA
:103C10009105A9F78CE791E00F3F100709F462CFF7
:103C200018968C911897877F19F08EE491E05ACFFF
:103C3000892D837049F0492D50E070E060E080E20A
:103C400091E00E944F1950CF87E0809FF001819F43
:103C5000F00D1124EC0FFD1F928212968C91129799
:103C6000982F917083FB882780F9858313968C9118
:103C7000139714964C91149750E070E060E027E0A1
:103C8000440F551F661F771F2A95D1F71596CC90C4
:103C90001597D12CF12CE12C3EE0CC0CDD1CEE1C58
:103CA000FF1C3A95D1F74C295D296E297F29482BB5
:103CB0001696CC901697D12CF12CE12C85E1CC0CEA
:103CC000DD1CEE1CFF1C8A95D1F74C295D296E295D
:103CD0007F291796CC901797D12CF12CE12C2CE151
:103CE000CC0CDD1CEE1CFF1C2A95D1F7C42AD52A6A
:103CF000E62AF72A19968C91199783831A968C9144
:103D0000848381E08087C114D104E104F10439F493
:103D100030E4C32E3BE4D32E3CE4E32EF12C40E010
:103D200052E16AE770E080E0C416D506E606F706C1
:103D300040F476956795579547958F5F8630A1F744
:103D400087E021E0282730E5911101C030E797E0B6
:103D5000909F5001919FB00C1124F5013696EC0F05
:103D6000FD1F922F9695932B908380958170818370
:103D7000AC0EBD1EF501838180FD2CC08FEF8483C6
:103D8000FF92EF92DF92CF9227E0209FC001219F08
:103D9000900D1124C80FD91F8C81282F082E000CDC
:103DA000330B3F938F931F930F931F929F9289ED35
:103DB00090E09F938F9383E494E09F938F930E946E
:103DC000141C8DB79EB70E960FB6F8949EBF0FBE0B
:103DD0008DBF8ACE61E084810E948A0261E0F50194
:103DE00084810E94C305CCCFCE010E945D157CCE9C
:103DF00001E010E021E06F2DCE010E94201A74CE68
:103E000010E000E020E0F7CF02E010E0FBCF01E09F
:103E100010E0F8CF482F50E070E060E08BED91E0CB
:103E200010CF85ED8093BC00809168039091690369
:103E3000A0916A03B0916B030796A11DB11D23E009
:103E4000B695A795979587952A95D1F72091BC00AF
:103E500024FD03C0109266030895409168035091B9
:103E6000690360916A0370916B03452B462B472BC6
:103E700069F30097A105B10541F025E32A95F1F713
:103E800000000197A109B109E1CF809167030C946B
:103E9000DD097F928F929F92AF92BF92CF92DF9275
:103EA000EF92FF920F931F93CF93DF93EC01D90111
:103EB000603609F0BBC08C91182F1F701C3008F0C1
:103EC000B5C0807F803309F493C15901042F813339
:103ED00038F48031A1F1803209F46CC181E0A7C0CF
:103EE000803609F4E3C1803709F4EFC18035B1F7BA
:103EF000612FCE010E946E0BEC01009779F3183010
:103F000008F0CEC1E881F9810680F781E02D09959E
:103F1000EA89FB8980818F7E8083EA89FB898081A1
:103F2000877F8083EA89FB8980818F778083EA8914
:103F3000FB8980818F7D80838A8D898FCFCFD90146
:103F40001296CC901297D12CF12CE12CE7E0CC0CFE
:103F5000DD1CEE1CFF1CEA95D1F713968C9190E0C6
:103F6000B0E0A0E0FEE0880F991FAA1FBB1FFA95E2
:103F7000D1F78C299D29AE29BF29F90121816C0136
:103F80007D01C22A812F90E0FC01EE0FFF1FEC0F94
:103F9000FD1FE15AFF4F11821082FC01EE0FFF1F3F
:103FA000EE0FFF1FEC0FFD1F13A214A215A216A205
:103FB0008C0F9D1FFC01ED5AFF4F1082183060F4EA
:103FC000612FCE010E946E0B009709F487CFB701D5
:103FD000A6010E941F0382CF453020F1D50114961F
:103FE0000C91149715967C901A3009F4C6C01B30BA
:103FF00009F4C8C0193049F55E01B9E7AB0EB11C30
:10400000F50180819181892BA9F58FE190E00E94D3
:10401000572E4C01472D602F0E94D026D5018D923E
:104020009C9228C081E094E00E94E31280E0DF913E
:10403000CF911F910F91FF90EF90DF90CF90BF90A5
:10404000AF909F908F907F9008954E01B7E78B0EB1
:10405000911CF40180819181892B61F48FE190E0C2
:104060000E94572E5C01472D602F0E94D026D4015C
:10407000AD92BC92612FCE010E946E0BEC01892B98
:1040800009F42CCF6AE0802F0E948A026AE0872D13
:104090000E948A021B8E1A8E198E188E1F8A1E8A03
:1040A00060E079E08DE390E0A70196010E94F02C9A
:1040B000F901C90103972430310510F481E090E043
:1040C0009D8F8C8F6C85663108F053C0C901969521
:1040D00087958431910508F45AC043979F8B8E8B46
:1040E000C9010597369710F481E090E0998F888F89
:1040F000C901880F991F280F391F369527953695C6
:1041000027952D30310508F445C02C5031093B8FDF
:104110002A8F9091680084E0683048F021E06E308A
:1041200008F420E081E001C0880F2A95EAF7892B86
:10413000809368009C852DE630E0983050F02BE6A7
:1041400030E09E3030F02CE630E0963110F030E078
:1041500020E03C8B2B8B292F30E09830F0F481E06D
:1041600001C0880F9A95EAF78D8B8C8D9D8D0197F4
:10417000F1F7CE010E946209B1CE5E01BBE7AB0E42
:10418000B11C3ECF5E01BDE7AB0EB11C39CF81E063
:1041900090E0A4CF21E030E0BACF9E3040F4285028
:1041A000310981E001C0880F2A95EAF7DDCF2E5052
:1041B0003109F7CF612FCE010E946E0B7C01892B54
:1041C00009F48CCEE50111E0101708F087CE6A8162
:1041D0006795662767958981680FD701ED91FC91F6
:1041E0000190F081E02DC70109951E5F2296ECCF6A
:1041F00011968C911197811126C03AA137300CF09D
:104200006DCE812F90E00596880F991FFE01E80F73
:10421000F91F4330A8F013968C91139720E8829FE2
:10422000C001112412962C91822B9183808381E00E
:10423000830F8AA3C80FD11D87FDDA951A834ECE4E
:1042400011821082F4CF813009F048CE9AA119165C
:104250001CF08FEF8AA342CE80E0492F092E000C7C
:10426000550B282F30E04217530774F480E0E82FF5
:10427000F0E04E175F078CF0883020F4EC0FFD1F44
:10428000238122838F5FF3CF2C0F3D1FD90112961C
:104290002C91121761F38F5FE4CF91509AA31ECE39
:1042A0000E944C09CE010E94F32E18CE612FCE0140
:1042B0000E946E0B009709F411CEDC01ED91FC9188
:1042C0000680F781E02D099509CE183008F406CE56
:1042D000612FCE010E946E0B009709F04BCFFECDEF
:1042E000CF92DF92EF92FF920F931F93CF93DF93C2
:1042F0007A016901C62FD0E08E01000F111F080F4F
:10430000191FD8019E918E918D010097E9F483E0E9
:1043100090E00E94572E209111032C30D0F531E00F
:10432000320F30931103FC01208330E0F901EE0FCE
:10433000FF1FE20FF31FED5EFC4F28EB3BE03283E3
:104340002183F80191838083DC01EC912E2F30E0F2
:10435000F901EE0FFF1FE20FF31FED5EFC4F20810E
:1043600026FF02C02F7B2083F7FE06C020E639E03F
:1043700040E252E0D7FC02C09601A701BE01DF91E6
:10438000CF911F910F91FF90EF90DF90CF900C9401
:10439000E1062FEFDC012C93D4CFCF92DF92EF9286
:1043A000FF920F931F93CF936037B1F54530A0F183
:1043B000F901C0814EEF4C0F4C3070F5EC2FF0E05E
:1043C000E157FB4F40814F3739F1F9018C01E28011
:1043D00020E8E29EC0011124E180E80EF92EF11CD4
:1043E000C48020E8C29EC0011124C380C80ED92E0B
:1043F000D11C64E08C2F0E948A029601A7016C2FC9
:10440000C8010E94702181E0CF911F910F91FF9010
:10441000EF90DF90CF90089580E0F6CF2EEF260F3B
:104420002C3068F44430510541F42FEF3FEF4FEF4B
:104430005FEF0E94702181E008950E94EF1880E0F4
:1044400008958F929F92AF92BF92CF92DF92EF9298
:10445000FF920F931F93CF93DF93643741F4F901D9
:10446000EC01423030F481E892E00E94E31280E0F7
:104470000CC0E08083E0E81215C08D819E810E940F
:10448000F32E1E821D821A8281E0DF91CF911F914F
:104490000F91FF90EF90DF90CF90BF90AF909F90E3
:1044A0008F900895A1E0EA1631F0B2E0EB1205C05A
:1044B00056E1E52E02C06BE0E62EF1800F2D10E0F4
:1044C0008A8181114FC01C830B8381E08A8383E141
:1044D00090E00E94572E6C01FC01F582E682F80103
:1044E000E755FB4FE491DC011796EC931797F80121
:1044F000EB56FB4FE4911896EC9380E89EE3A0E026
:10450000B0E0F60185879687A787B08BDE82CD82E3
:1045100062E08F2D0E94C3050E946C06605D7740AB
:1045200081099109D60119966D937D938D939C9382
:104530001C9787E352968C930D811E81C8010E94BF
:104540009A07882351F0F80186818B3030F08D3046
:1045500098F08551823008F446C060E070E080EC4D
:104560009FE725C08B819C818017910729F38D815E
:104570009E810E94F32EABCF618170E090E080E0DD
:104580000E94F72B2DEC3CEC4CEC5DE30E94322CAE
:104590004B015C01F801608170E090E080E00E94D6
:1045A000F72B9B01AC01C501B4010E94692D0E944B
:1045B000D52D2AE0269F8001279F100D11240D8004
:1045C000DE81C02DCE010E949A07882339F08E81AA
:1045D0008C3009F484C0B8F48B3061F160E070E095
:1045E00080EC9FE74DC06081718176276727762731
:1045F00090E080E00E94F52B2DEC3CEC4CEC5DE370
:104600000E94322CD4CF8551823040F7EA806E2D43
:1046100070E0762F662766277F778B81682B90E086
:1046200080E00E94F52B2DEC3CEC4CEC5DE30E940D
:10463000322C6FC06A8170E090E080E00E94F52B20
:104640004B015C01CB81C7FF0AC0AC019B0160E05C
:1046500070E080E89FEB0E94682D4B015C01CF70F9
:104660006C2F70E090E080E00E94F72B2DEC3CEC8A
:104670004CEC5DE30E94322CA50194010E94692D4F
:1046800020E030E040E251E40E94322C0E94D52D1F
:104690004B010E94EF0284E70E94A20280E00E9488
:1046A000A2028F2D0E94A202882D8F770E94A20263
:1046B000C401880F892F881F990B8F770E94A2024F
:1046C000802F8F770E94A202C801880F892F881F30
:1046D000990B8F770E94A2020E94AF02D5CEEA808A
:1046E0006E2D70E090E080E00E94F52B4B015C01A4
:1046F0006B816F7070E090E080E00E94F72B2DECF2
:104700003CEC4CEC5DE30E94322CA50194010E942C
:10471000692DE7FEB5CF9058B3CF1F920F920FB619
:104720000F9211242F933F934F935F936F937F9337
:104730008F939F93AF93BF93EF93FF9380E993E0A1
:104740000E94CD04FF91EF91BF91AF919F918F9106
:104750007F916F915F914F913F912F910F900FBE7D
:104760000F901F9018951F920F920FB60F92112461
:104770002F938F939F93EF93FF93E091A003F0917A
:10478000A1038081E091A603F091A70382FD1BC0E5
:1047900090818091A9038F5F8F732091AA03821764
:1047A00041F0E091A903F0E0E057FC4F958F809332
:1047B000A903FF91EF919F918F912F910F900FBEC1
:1047C0000F901F9018958081F4CF1F920F920FB613
:1047D0000F9211242F933F938F939F93AF93BF9387
:1047E0008091380390913903A0913A03B0913B0333
:1047F0003091370323E0230F2D3758F50196A11D83
:10480000B11D209337038093380390933903A0930D
:104810003A03B0933B0380913C0390913D03A091F8
:104820003E03B0913F030196A11DB11D80933C034F
:1048300090933D03A0933E03B0933F03BF91AF918C
:104840009F918F913F912F910F900FBE0F901F90CE
:10485000189526E8230F0296A11DB11DD2CF1F92F5
:104860000F920FB60F9211242F933F934F935F93A4
:104870006F937F938F939F93AF93BF93EF93FF9328
:10488000E0910201F09103010995FF91EF91BF9131
:10489000AF919F918F917F916F915F914F913F91D8
:1048A0002F910F900FBE0F901F9018951F920F928F
:1048B0000FB60F9211242F933F934F935F936F93F3
:1048C0007F938F939F93AF93BF93EF93FF93E09169
:1048D0000001F09101010995FF91EF91BF91AF9116
:1048E0009F918F917F916F915F914F913F912F9108
:1048F0000F900FBE0F901F9018951F920F920FB63A
:104900000F9211242F933F934F935F936F937F9355
:104910008F939F93AF93BF93CF93DF93EF93FF93C7
:1049200080911203C0911103D0E087FF24C0109240
:10493000850010928400809112038F5F8093120390
:1049400080911203082E000C990B8C179D0724F4FC
:10495000809112038C30C4F1809184009091850085
:10496000049680349C4908F47AC080918400909128
:104970008500049676C080911203082E000C990BD6
:104980008C179D07C4F6E09112038E2FEE0F990B42
:10499000FC01EE0FFF1FE80FF91FED5EFC4F808159
:1049A00086FFC9CFE09112038E2FEE0F990BFC0109
:1049B000EE0FFF1FE80FF91FED5EFC4F808160E0F6
:1049C0008F730E947705B7CF2091840030918500C6
:1049D000E09112038E2FEE0F990BFC01EE0FFF1FDB
:1049E000E80FF91FED5EFC4F81819281820F931FCA
:1049F0009093890080938800E09112038E2FEE0F30
:104A0000990BFC01EE0FFF1FE80FF91FED5EFC4F45
:104A1000808186FF11C0E09112038E2FEE0F990B5B
:104A2000FC01EE0FFF1FE80FF91FED5EFC4F8081C8
:104A300061E08F730E947705FF91EF91DF91CF9135
:104A4000BF91AF919F918F917F916F915F914F91A6
:104A50003F912F910F900FBE0F901F90189580E4FB
:104A60009CE990938900809388008FEF80931203D4
:104A7000E3CF1F920F920FB60F9211242F933F9303
:104A80004F935F936F937F938F939F93AF93BF9356
:104A9000EF93FF93E0910F03F0911003309749F0EB
:104AA000A685B7858585968D91FF14C09C91892335
:104AB000A1F4FF91EF91BF91AF919F918F917F9161
:104AC0006F915F914F913F912F910F900FBE0F907B
:104AD0001F9018959C91892361F7A389B4899C91B3
:104AE0008589809589238C93868997890197F1F729
:104AF000608D718DA685B785558538E020E0CB01A6
:104B00000197F1F7822F90E095958795282F4C918A
:104B1000452309F02068315091F7868D81FD20955D
:104B200080910D0390E001968F73992730910E03C9
:104B3000381799F0A0910D03B0E0A353BD4F2C930B
:104B400080930D03828D938D0197F1F7A389B4892A
:104B50008C919589892B8C93ACCF868D8160868FC3
:104B6000F1CF1F920F920FB60F9211242F933F9304
:104B70004F935F936F937F938F939F93AF93BF9365
:104B8000EF93FF938091B900887F803609F44AC083
:104B9000F0F5883209F4A7C018F5803109F49BC0FC
:104BA000B8F4882309F4F9C0883009F494C0FF915F
:104BB000EF91BF91AF919F918F917F916F915F9195
:104BC0004F913F912F910F900FBE0F901F9018950E
:104BD000883109F488C0803251F78093640314C08F
:104BE000803409F49DC040F48033B9F38833F9F67A
:104BF0008093640385ECB0C0803509F485C08835A6
:104C000009F496C0883499F60E94111FD0CF8839D4
:104C100009F48CC038F5883729F050F4883611F043
:104C2000803729F683E0809366031092CC0257C048
:104C3000883809F47BC0803919F0803809F0B7CF83
:104C40008091CC02803208F071C0E091CC0281E00A
:104C50008E0F8093CC028091BB00F0E0E455FD4FB5
:104C600080833DC0803B39F0E0F4803A09F479C09C
:104C7000883A09F09CCF84E0809366031092A902E1
:104C80001092A802E091A602F091A70209958091E6
:104C9000A80281110FC081E08093A80210928602C1
:104CA00009C0803C09F4A6CF883C09F4A3CF883B17
:104CB00009F07DCFE091A90281E08E0F8093A902D7
:104CC000F0E0EA57FD4F80818093BB009091A902EC
:104CD0008091A80229C0809141038093BB0085EC9C
:104CE0008093BC0064CF9091630380916203981716
:104CF00058F5E091630381E08E0F80936303F0E049
:104D0000EE5BFC4F8081E9CFE091630381E08E0F81
:104D1000809363038091BB00F0E0EE5BFC4F8083E7
:104D200090916303809162039817C8F285E8D8CF09
:104D3000E091630381E08E0F809363038091BB0059
:104D4000F0E0EE5BFC4F80838091650381115CCFC6
:104D500081E08093400384EA8093BC001092660354
:104D600026CF85EC8093BC00109266038091CC0224
:104D7000803230F4E091CC02F0E0E455FD4F108237
:104D80006091CC0270E0E091AA02F091AB028CEA53
:104D900092E009951092CC020ACF1092640334CFAE
:104DA0000F931F93CF93DF93EC01162F042F1B82D9
:104DB0001A8288EE93E0A0E0B0E08C839D83AE83FE
:104DC000BF8382E191E0998388831F8A1E8A198EAE
:104DD000188E1B8E1A8E1D8E1C8E6E8D6E7F6D7FB3
:104DE0006E8F6695617081E06827842F0E94770539
:104DF00061E0802F0E94C305802F90E0FC01E75501
:104E0000FB4FE491E88BFC01EB56FB4FE491F0E0A3
:104E1000EE0FFF1FE557FB4F859194919A8B898B7D
:104E200060E0812F0E94C3058E8D81FD04C061E08A
:104E3000812F0E9477051C87812F90E0FC01E755A8
:104E4000FB4FE491ED87FC01EB56FB4FE491F0E062
:104E5000EE0FFF1FEF57FB4F859194919F878E8731
:104E6000DF91CF911F910F910895109293031092AB
:104E7000920388EE93E0A0E0B0E0809394039093D7
:104E80009503A0939603B093970324E231E0309307
:104E900091032093900325EC30E030939D03209301
:104EA0009C0324EC30E030939F0320939E0320EC7E
:104EB00030E03093A1032093A00321EC30E0309345
:104EC000A3032093A20322EC30E03093A5032093A8
:104ED000A40326EC30E03093A7032093A60310929E
:104EE000A9031092AA031092AB031092AC03109284
:104EF000300410922F048093310490933204A093D5
:104F00003304B093340486E391E090932E048093AD
:104F10002D0410924804109247048AE492E0909382
:104F20004604809345041092CB040E948F038CEFBB
:104F300091E0909352068093510610925906109278
:104F400056061092530610925A0610925706109267
:104F5000540610925B06109258061092550681E591
:104F600096E09093CD048093CC048DED9FE09093D8
:104F7000BE048093BD0488EE91E090935006809328
:104F80004F068FE496E0909342048093410485EBB2
:104F90009EE09093BA048093B9048AE99EE09093CE
:104FA000C2048093C10488E392E090934306809307
:104FB000420687E280934D0610924E0610924406F8
:104FC0001092450610924606109247061092480627
:104FD0001092490610924A0610924B0610924C0607
:104FE00084ED91E090933F0680933E068EE396E039
:104FF0009093400480933F04109241061092400623
:1050000089E392E19093BC048093BB0480EC91E02F
:1050100090933D0680933C068CEA91E09093EF05D7
:105020008093EE05109238068FEF80933906109228
:105030003B0610923A06E8E1F6E080E2DF011D92BD
:105040008A95E9F788E991E09093B4058093B305D8
:10505000E5EBF5E0A3EBB5E090E58FEF94831582E7
:1050600010821182828313821682379625E0ED3EEC
:10507000F207A1F71092ED058FEF12968C9312971D
:1050800014968C93149718961C92189715961C9248
:105090001597179695E0AB3EB90779F724E831E00C
:1050A00030933505209334051092AC051092AB0572
:1050B0001092AE051092AD051092B0051092AF059A
:1050C0001092B2051092B1058093560584E395E0E5
:1050D0000E94A51884E292E090932E0580932D05FE
:1050E00010922F058FEF9FEF90933105809330053D
:1050F00080E791E0909301058093000580E095E0C2
:1051000090933E0480933D048EE395E19093C00418
:105110008093BF0486E99CE19093C8048093C70400
:10512000E2E0F5E011921192A5E0EC32FA07D1F736
:1051300010922C0580E192E09093E7048093E604BE
:105140008CE591E09093DB048093DA041092DC0408
:105150001092DD041092DE041092DF041092E0043D
:105160001092E1041092E2041092E30481E090E0D6
:105170009093E5048093E40488E491E09093CF0455
:105180008093CE048FEF9FEF9093D1048093D0044F
:105190001092D2041092D3041092D4041092D50429
:1051A0001092390410923A0410923B0410923C047D
:1051B0000E946C066093D6047093D7048093D80441
:1051C0009093D9040895789484B5826084BD84B5A1
:1051D000816084BD85B5826085BD85B5816085BDF2
:1051E00080916E00816080936E00109281008091AA
:1051F0008100826080938100809181008160809332
:105200008100809180008160809380008091B10056
:1052100084608093B1008091B00081608093B00081
:1052200080917A00846080937A0080917A00826015
:1052300080937A0080917A00816080937A008091D7
:105240007A00806880937A001092C1008BE492E02B
:10525000909346048093450483E0809347048093B1
:10526000480440E052EC61E070E080E993E00E9485
:105270001F031092940310929503109296031092BC
:10528000970380E993E0909344048093430481E082
:105290008093B8048091CB0481113EC061E08DE021
:1052A0000E94C305C3E062ED70E080E090E00E94E0
:1052B000390661E08DE00E94770568E270E080E0E9
:1052C00090E00E94390660E08DE00E947705C150B1
:1052D00051F76AEF70E080E090E00E943906C3E089
:1052E00062ED70E080E090E00E94390661E08DE0C0
:1052F0000E94770568E270E080E090E00E94390645
:1053000060E08DE00E947705C15051F76DE770E0D5
:1053100080E090E00E9439060E94FB0280914704E1
:10532000882341F08091430490914404892B11F02B
:105330000E9492128DE394E00E94E31281E596E0D0
:105340000E947F038FE496E00E947F038EE396E045
:105350000E947F038CE396E00E947F0386EE94E038
:105360000E947F038EEE95E00E947F0384E395E028
:105370000E947F038AED94E00E947F0383EB95E017
:105380000E947F038DE295E00E947F038EEC94E003
:105390000E947F0382E496E00E947F038CE29EE0FD
:1053A0009093C4048093C30410928C0410928E04D2
:1053B00010928D04109249040E948F0390E0292ED0
:1053C00090E0392EFF24F39422E0E22E3FE6D32E24
:1053D00047EFC42E04E010E0809143049091440410
:1053E000DC01ED91FC910084F185E02D0995892B7C
:1053F00099F50E946C066093DC047093DD04809341
:10540000DE049093DF048090E0049090E104A0908B
:10541000E204B090E3044090E4045090E504712C61
:10542000612C9B01AC01281939094A095B09421614
:1054300053066406750608F477C160E080E095E0E5
:105440000E94E80D2114310439F20E94B904882326
:1054500019F20E940000C0CF80914304909144044F
:10546000EC01E881F9810284F385E02D09958F3FF5
:10547000980791F1382F8F3F59F410928C041092B5
:105480008E0410928D04109249040E948F0324C050
:1054900020918C04222309F487C060918D047091BF
:1054A0008E04873F09F065C010928C046115710568
:1054B00099F080914C048137C9F0893709F04DC0CB
:1054C00080914704882341F08091430490914404E3
:1054D000892B11F00E9492128091490481117CCF96
:1054E00080918C04882309F484CF76CFE091C504A1
:1054F000F091C604309781F3DB011197B7FDDB0112
:10550000B595A795BA2EAA2339F323E434E04CE4E9
:1055100054E090E0E901AA84EA01A992AE01BE013B
:1055200061507109E9018B858795882787958A0DD8
:10553000EB0188839F5F2E5F3F4F9B1558F3BB277E
:10554000AD5BBB4F18968C911897882311F0199674
:105550001C928CE494E00995BFCFE091C704F091D0
:10556000C804309709F4B8CF61504DE454E0099570
:10557000B3CF6034710569F489E594E00E94E312C9
:1055800010928C0410928E0410928D041092490493
:10559000A3CFFB01ED5BFB4F81876F5F7F4F709364
:1055A0008E0460938D0498CF20914904222309F43E
:1055B0007CC087FD7AC09FEF920F90934904E92F3A
:1055C000F0E0ED5BFB4F8187911106CF80914A049B
:1055D000882309F485CF803D09F45CC060F48039EC
:1055E00081F1E091BB04F091BC04803C09F456C009
:1055F00010924A0471CF843FC1F1853FE9F1803EAA
:10560000B9F780914C0490914D04D0924C042091B4
:105610004B0420934D0490934E0480934F04C0920A
:10562000500410938E0400938D04E091C704F09110
:10563000C8043097E9F24DE454E063E08FE6099541
:10564000D7CFE091B904F091BA04309789F2609114
:105650004C04D0E86D9FC001112460914D04680F87
:10566000792F711D80914B0413C060914C0480917F
:105670004D040E948A02BCCFE091C104F091C204A3
:1056800060914C0470E080914D04309709F4B0CFE4
:105690000995AECFE091BD04F091BE04309709F4B6
:1056A000A7CF60914C0470E0DDCF303FB8F4282FD5
:1056B000207F30E08F7080934B04203F310551F103
:1056C000BCF4203C310519F164F42039310509F0AE
:1056D00003CFE092490420934A04FECE9C01332775
:1056E000ECCF203D310599F0203E310591F3F4CE09
:1056F000293F3105B1F034F4C901845F9109029763
:1057000040F3EACE2F3F310509F4BFCEE5CEF0924B
:105710004904E1CFF0928C0410928E0410928D0413
:10572000DBCE0E94FB02D8CE840C951CA61CB71CB5
:105730009B01AC01281939094A095B094216530635
:105740006406750650F08092E0049092E104A09205
:10575000E204B092E30461E071CE64197509860930
:1057600097096093E0047093E1048093E2049093BE
:10577000E304F1CFFC0105900020E9F780959095B6
:105780008E0F9F1F0895BB27FA01A62F6217710580
:1057900081059105330B30FB66F0AA27660F771F52
:1057A000881F991FAA1FA21710F0A21B63953850DB
:1057B000A9F7A05DAA3308F0A95DA19336F7B1114E
:1057C000B1931082CA010C94E52BDC01FC01672F18
:1057D00071917723E1F7329704C07C916D937083C8
:1057E0006291AE17BF07C8F30895E89409C097FB0C
:1057F0003EF490958095709561957F4F8F4F9F4FA8
:105800009923A9F0F92F96E9BB279395F6958795EB
:1058100077956795B795F111F8CFFAF4BB0F11F4AE
:1058200060FF1BC06F5F7F4F8F4F9F4F16C0882355
:1058300011F096E911C0772321F09EE8872F762F8B
:1058400005C0662371F096E8862F70E060E02AF0CC
:105850009A95660F771F881FDAF7880F96958795B8
:1058600097F908950E94452C0C94B62C0E94A82C00
:1058700038F00E94AF2C20F0952311F00C949F2C4F
:105880000C94A52C11240C94EA2C0E94C72C70F3C4
:10589000959FC1F3950F50E0551F629FF001729FD5
:1058A000BB27F00DB11D639FAA27F00DB11DAA1FE4
:1058B000649F6627B00DA11D661F829F2227B00D31
:1058C000A11D621F739FB00DA11D621F839FA00DBC
:1058D000611D221F749F3327A00D611D231F849F0C
:1058E000600D211D822F762F6A2F11249F57504063
:1058F0009AF0F1F088234AF0EE0FFF1FBB1F661FDE
:10590000771F881F91505040A9F79E3F510580F0A6
:105910000C949F2C0C94EA2C5F3FE4F3983ED4F354
:10592000869577956795B795F795E7959F5FC1F74A
:10593000FE2B880F911D9695879597F9089597F9F5
:105940009F6780E870E060E008959FEF80EC089525
:1059500000240A941616170618060906089500244E
:105960000A9412161306140605060895092E0394C8
:10597000000C11F4882352F0BB0F40F4BF2B11F43C
:1059800060FF04C06F5F7F4F8F4F9F4F089557FD9B
:105990009058440F551F59F05F3F71F04795880F9D
:1059A00097FB991F61F09F3F79F087950895121634
:1059B00013061406551FF2CF4695F1DF08C01616E0
:1059C00017061806991FF1CF869571056105089491
:1059D0000895E894BB2766277727CB0197F90895A8
:1059E000052E97FB1EF400940E94072D57FD07D04B
:1059F0000E94462D07FC03D04EF40C94072D5095C1
:105A00004095309521953F4F4F4F5F4F08959095AA
:105A10008095709561957F4F8F4F9F4F08952F927E
:105A20003F924F925F926F927F928F929F92AF922E
:105A3000BF92CF92DF92EF92FF920F931F93CF937B
:105A4000DF93CDB7DEB7CA1BDB0B0FB6F894DEBF12
:105A50000FBECDBF09942A88398848885F846E8438
:105A60007D848C849B84AA84B984C884DF80EE8082
:105A7000FD800C811B81AA81B981CE0FD11D0FB68B
:105A8000F894DEBF0FBECDBFED010895A1E21A2E3E
:105A9000AA1BBB1BFD010DC0AA1FBB1FEE1FFF1FD2
:105AA000A217B307E407F50720F0A21BB30BE40B22
:105AB000F50B661F771F881F991F1A9469F7609569
:105AC0007095809590959B01AC01BD01CF01089523
:105AD0005058BB27AA270E94802D0C94B62C0E94F8
